{
	"contracts/contracts/while1.sol": {
		"Types": {
			"abi": [
				{
					"anonymous": false,
					"inputs": [
						{
							"indexed": false,
							"internalType": "uint256[]",
							"name": "updatedData",
							"type": "uint256[]"
						}
					],
					"name": "DataUpdated",
					"type": "event"
				},
				{
					"inputs": [
						{
							"internalType": "uint256",
							"name": "",
							"type": "uint256"
						}
					],
					"name": "data",
					"outputs": [
						{
							"internalType": "uint256",
							"name": "",
							"type": "uint256"
						}
					],
					"stateMutability": "view",
					"type": "function"
				},
				{
					"inputs": [],
					"name": "j",
					"outputs": [
						{
							"internalType": "uint8",
							"name": "",
							"type": "uint8"
						}
					],
					"stateMutability": "view",
					"type": "function"
				},
				{
					"inputs": [],
					"name": "loop",
					"outputs": [
						{
							"internalType": "uint256[]",
							"name": "",
							"type": "uint256[]"
						}
					],
					"stateMutability": "nonpayable",
					"type": "function"
				}
			],
			"devdoc": {
				"kind": "dev",
				"methods": {},
				"version": 1
			},
			"evm": {
				"assembly": "    /* \"contracts/contracts/while1.sol\":60:408  contract Types {... */\n  mstore(0x40, 0x80)\n    /* \"contracts/contracts/while1.sol\":124:125  0 */\n  0x00\n    /* \"contracts/contracts/while1.sol\":107:125  uint8 public j = 0 */\n  0x01\n  exp(0x0100, 0x00)\n  dup2\n  sload\n  dup2\n  0xff\n  mul\n  not\n  and\n  swap1\n  dup4\n  0xff\n  and\n  mul\n  or\n  swap1\n  sstore\n  pop\n    /* \"contracts/contracts/while1.sol\":60:408  contract Types {... */\n  callvalue\n  dup1\n  iszero\n  tag_1\n  jumpi\n  revert(0x00, 0x00)\ntag_1:\n  pop\n  dataSize(sub_0)\n  dup1\n  dataOffset(sub_0)\n  0x00\n  codecopy\n  0x00\n  return\nstop\n\nsub_0: assembly {\n        /* \"contracts/contracts/while1.sol\":60:408  contract Types {... */\n      mstore(0x40, 0x80)\n      callvalue\n      dup1\n      iszero\n      tag_1\n      jumpi\n      revert(0x00, 0x00)\n    tag_1:\n      pop\n      jumpi(tag_2, lt(calldatasize, 0x04))\n      shr(0xe0, calldataload(0x00))\n      dup1\n      0xa92100cb\n      eq\n      tag_3\n      jumpi\n      dup1\n      0xb582ec5f\n      eq\n      tag_4\n      jumpi\n      dup1\n      0xf0ba8440\n      eq\n      tag_5\n      jumpi\n    tag_2:\n      revert(0x00, 0x00)\n        /* \"contracts/contracts/while1.sol\":180:405  function loop() public returns (uint[] memory) {... */\n    tag_3:\n      tag_6\n      tag_7\n      jump\t// in\n    tag_6:\n      mload(0x40)\n      tag_8\n      swap2\n      swap1\n      tag_9\n      jump\t// in\n    tag_8:\n      mload(0x40)\n      dup1\n      swap2\n      sub\n      swap1\n      return\n        /* \"contracts/contracts/while1.sol\":107:125  uint8 public j = 0 */\n    tag_4:\n      tag_10\n      tag_11\n      jump\t// in\n    tag_10:\n      mload(0x40)\n      tag_12\n      swap2\n      swap1\n      tag_13\n      jump\t// in\n    tag_12:\n      mload(0x40)\n      dup1\n      swap2\n      sub\n      swap1\n      return\n        /* \"contracts/contracts/while1.sol\":82:100  uint[] public data */\n    tag_5:\n      tag_14\n      0x04\n      dup1\n      calldatasize\n      sub\n      dup2\n      add\n      swap1\n      tag_15\n      swap2\n      swap1\n      tag_16\n      jump\t// in\n    tag_15:\n      tag_17\n      jump\t// in\n    tag_14:\n      mload(0x40)\n      tag_18\n      swap2\n      swap1\n      tag_19\n      jump\t// in\n    tag_18:\n      mload(0x40)\n      dup1\n      swap2\n      sub\n      swap1\n      return\n        /* \"contracts/contracts/while1.sol\":180:405  function loop() public returns (uint[] memory) {... */\n    tag_7:\n        /* \"contracts/contracts/while1.sol\":212:225  uint[] memory */\n      0x60\n        /* \"contracts/contracts/while1.sol\":238:309  while (j < 5) {... */\n    tag_21:\n        /* \"contracts/contracts/while1.sol\":249:250  5 */\n      0x05\n        /* \"contracts/contracts/while1.sol\":245:246  j */\n      0x01\n      0x00\n      swap1\n      sload\n      swap1\n      0x0100\n      exp\n      swap1\n      div\n      0xff\n      and\n        /* \"contracts/contracts/while1.sol\":245:250  j < 5 */\n      0xff\n      and\n      lt\n        /* \"contracts/contracts/while1.sol\":238:309  while (j < 5) {... */\n      iszero\n      tag_22\n      jumpi\n        /* \"contracts/contracts/while1.sol\":267:268  j */\n      0x01\n      0x00\n        /* \"contracts/contracts/while1.sol\":267:270  j++ */\n      dup2\n      dup2\n      swap1\n      sload\n      swap1\n      0x0100\n      exp\n      swap1\n      div\n      0xff\n      and\n      dup1\n      swap3\n      swap2\n      swap1\n      tag_23\n      swap1\n      tag_24\n      jump\t// in\n    tag_23:\n      swap2\n      swap1\n      0x0100\n      exp\n      dup2\n      sload\n      dup2\n      0xff\n      mul\n      not\n      and\n      swap1\n      dup4\n      0xff\n      and\n      mul\n      or\n      swap1\n      sstore\n      pop\n      pop\n        /* \"contracts/contracts/while1.sol\":285:289  data */\n      0x00\n        /* \"contracts/contracts/while1.sol\":295:296  j */\n      0x01\n      0x00\n      swap1\n      sload\n      swap1\n      0x0100\n      exp\n      swap1\n      div\n      0xff\n      and\n        /* \"contracts/contracts/while1.sol\":285:297  data.push(j) */\n      swap1\n      dup1\n      0x01\n      dup2\n      sload\n      add\n      dup1\n      dup3\n      sstore\n      dup1\n      swap2\n      pop\n      pop\n      0x01\n      swap1\n      sub\n      swap1\n      0x00\n      mstore\n      keccak256(0x00, 0x20)\n      add\n      0x00\n      swap1\n      swap2\n      0xff\n      and\n      swap1\n      swap2\n      swap1\n      swap2\n      pop\n      sstore\n        /* \"contracts/contracts/while1.sol\":238:309  while (j < 5) {... */\n      jump(tag_21)\n    tag_22:\n        /* \"contracts/contracts/while1.sol\":324:341  DataUpdated(data) */\n      0x9f0c9e860ad79b9c17bac037cb816ee640148fd404e9580e4a111f90cfb6b376\n        /* \"contracts/contracts/while1.sol\":336:340  data */\n      0x00\n        /* \"contracts/contracts/while1.sol\":324:341  DataUpdated(data) */\n      mload(0x40)\n      tag_26\n      swap2\n      swap1\n      tag_27\n      jump\t// in\n    tag_26:\n      mload(0x40)\n      dup1\n      swap2\n      sub\n      swap1\n      log1\n        /* \"contracts/contracts/while1.sol\":393:397  data */\n      0x00\n        /* \"contracts/contracts/while1.sol\":386:397  return data */\n      dup1\n      sload\n      dup1\n      0x20\n      mul\n      0x20\n      add\n      mload(0x40)\n      swap1\n      dup2\n      add\n      0x40\n      mstore\n      dup1\n      swap3\n      swap2\n      swap1\n      dup2\n      dup2\n      mstore\n      0x20\n      add\n      dup3\n      dup1\n      sload\n      dup1\n      iszero\n      tag_28\n      jumpi\n      0x20\n      mul\n      dup3\n      add\n      swap2\n      swap1\n      0x00\n      mstore\n      keccak256(0x00, 0x20)\n      swap1\n    tag_29:\n      dup2\n      sload\n      dup2\n      mstore\n      0x20\n      add\n      swap1\n      0x01\n      add\n      swap1\n      dup1\n      dup4\n      gt\n      tag_29\n      jumpi\n    tag_28:\n      pop\n      pop\n      pop\n      pop\n      pop\n      swap1\n      pop\n        /* \"contracts/contracts/while1.sol\":180:405  function loop() public returns (uint[] memory) {... */\n      swap1\n      jump\t// out\n        /* \"contracts/contracts/while1.sol\":107:125  uint8 public j = 0 */\n    tag_11:\n      0x01\n      0x00\n      swap1\n      sload\n      swap1\n      0x0100\n      exp\n      swap1\n      div\n      0xff\n      and\n      dup2\n      jump\t// out\n        /* \"contracts/contracts/while1.sol\":82:100  uint[] public data */\n    tag_17:\n      0x00\n      dup2\n      dup2\n      sload\n      dup2\n      lt\n      tag_30\n      jumpi\n      0x00\n      dup1\n      revert\n    tag_30:\n      swap1\n      0x00\n      mstore\n      keccak256(0x00, 0x20)\n      add\n      0x00\n      swap2\n      pop\n      swap1\n      pop\n      sload\n      dup2\n      jump\t// out\n        /* \"#utility.yul\":7:121   */\n    tag_32:\n        /* \"#utility.yul\":74:80   */\n      0x00\n        /* \"#utility.yul\":108:113   */\n      dup2\n        /* \"#utility.yul\":102:114   */\n      mload\n        /* \"#utility.yul\":92:114   */\n      swap1\n      pop\n        /* \"#utility.yul\":7:121   */\n      swap2\n      swap1\n      pop\n      jump\t// out\n        /* \"#utility.yul\":127:311   */\n    tag_33:\n        /* \"#utility.yul\":226:237   */\n      0x00\n        /* \"#utility.yul\":260:266   */\n      dup3\n        /* \"#utility.yul\":255:258   */\n      dup3\n        /* \"#utility.yul\":248:267   */\n      mstore\n        /* \"#utility.yul\":300:304   */\n      0x20\n        /* \"#utility.yul\":295:298   */\n      dup3\n        /* \"#utility.yul\":291:305   */\n      add\n        /* \"#utility.yul\":276:305   */\n      swap1\n      pop\n        /* \"#utility.yul\":127:311   */\n      swap3\n      swap2\n      pop\n      pop\n      jump\t// out\n        /* \"#utility.yul\":317:449   */\n    tag_34:\n        /* \"#utility.yul\":384:388   */\n      0x00\n        /* \"#utility.yul\":407:410   */\n      dup2\n        /* \"#utility.yul\":399:410   */\n      swap1\n      pop\n        /* \"#utility.yul\":437:441   */\n      0x20\n        /* \"#utility.yul\":432:435   */\n      dup3\n        /* \"#utility.yul\":428:442   */\n      add\n        /* \"#utility.yul\":420:442   */\n      swap1\n      pop\n        /* \"#utility.yul\":317:449   */\n      swap2\n      swap1\n      pop\n      jump\t// out\n        /* \"#utility.yul\":455:532   */\n    tag_35:\n        /* \"#utility.yul\":492:499   */\n      0x00\n        /* \"#utility.yul\":521:526   */\n      dup2\n        /* \"#utility.yul\":510:526   */\n      swap1\n      pop\n        /* \"#utility.yul\":455:532   */\n      swap2\n      swap1\n      pop\n      jump\t// out\n        /* \"#utility.yul\":538:646   */\n    tag_36:\n        /* \"#utility.yul\":615:639   */\n      tag_63\n        /* \"#utility.yul\":633:638   */\n      dup2\n        /* \"#utility.yul\":615:639   */\n      tag_35\n      jump\t// in\n    tag_63:\n        /* \"#utility.yul\":610:613   */\n      dup3\n        /* \"#utility.yul\":603:640   */\n      mstore\n        /* \"#utility.yul\":538:646   */\n      pop\n      pop\n      jump\t// out\n        /* \"#utility.yul\":652:831   */\n    tag_37:\n        /* \"#utility.yul\":721:731   */\n      0x00\n        /* \"#utility.yul\":742:788   */\n      tag_65\n        /* \"#utility.yul\":784:787   */\n      dup4\n        /* \"#utility.yul\":776:782   */\n      dup4\n        /* \"#utility.yul\":742:788   */\n      tag_36\n      jump\t// in\n    tag_65:\n        /* \"#utility.yul\":820:824   */\n      0x20\n        /* \"#utility.yul\":815:818   */\n      dup4\n        /* \"#utility.yul\":811:825   */\n      add\n        /* \"#utility.yul\":797:825   */\n      swap1\n      pop\n        /* \"#utility.yul\":652:831   */\n      swap3\n      swap2\n      pop\n      pop\n      jump\t// out\n        /* \"#utility.yul\":837:950   */\n    tag_38:\n        /* \"#utility.yul\":907:911   */\n      0x00\n        /* \"#utility.yul\":939:943   */\n      0x20\n        /* \"#utility.yul\":934:937   */\n      dup3\n        /* \"#utility.yul\":930:944   */\n      add\n        /* \"#utility.yul\":922:944   */\n      swap1\n      pop\n        /* \"#utility.yul\":837:950   */\n      swap2\n      swap1\n      pop\n      jump\t// out\n        /* \"#utility.yul\":986:1718   */\n    tag_39:\n        /* \"#utility.yul\":1105:1108   */\n      0x00\n        /* \"#utility.yul\":1134:1188   */\n      tag_68\n        /* \"#utility.yul\":1182:1187   */\n      dup3\n        /* \"#utility.yul\":1134:1188   */\n      tag_32\n      jump\t// in\n    tag_68:\n        /* \"#utility.yul\":1204:1290   */\n      tag_69\n        /* \"#utility.yul\":1283:1289   */\n      dup2\n        /* \"#utility.yul\":1278:1281   */\n      dup6\n        /* \"#utility.yul\":1204:1290   */\n      tag_33\n      jump\t// in\n    tag_69:\n        /* \"#utility.yul\":1197:1290   */\n      swap4\n      pop\n        /* \"#utility.yul\":1314:1370   */\n      tag_70\n        /* \"#utility.yul\":1364:1369   */\n      dup4\n        /* \"#utility.yul\":1314:1370   */\n      tag_34\n      jump\t// in\n    tag_70:\n        /* \"#utility.yul\":1393:1400   */\n      dup1\n        /* \"#utility.yul\":1424:1425   */\n      0x00\n        /* \"#utility.yul\":1409:1693   */\n    tag_71:\n        /* \"#utility.yul\":1434:1440   */\n      dup4\n        /* \"#utility.yul\":1431:1432   */\n      dup2\n        /* \"#utility.yul\":1428:1441   */\n      lt\n        /* \"#utility.yul\":1409:1693   */\n      iszero\n      tag_73\n      jumpi\n        /* \"#utility.yul\":1510:1516   */\n      dup2\n        /* \"#utility.yul\":1504:1517   */\n      mload\n        /* \"#utility.yul\":1537:1600   */\n      tag_74\n        /* \"#utility.yul\":1596:1599   */\n      dup9\n        /* \"#utility.yul\":1581:1594   */\n      dup3\n        /* \"#utility.yul\":1537:1600   */\n      tag_37\n      jump\t// in\n    tag_74:\n        /* \"#utility.yul\":1530:1600   */\n      swap8\n      pop\n        /* \"#utility.yul\":1623:1683   */\n      tag_75\n        /* \"#utility.yul\":1676:1682   */\n      dup4\n        /* \"#utility.yul\":1623:1683   */\n      tag_38\n      jump\t// in\n    tag_75:\n        /* \"#utility.yul\":1613:1683   */\n      swap3\n      pop\n        /* \"#utility.yul\":1469:1693   */\n      pop\n        /* \"#utility.yul\":1456:1457   */\n      0x01\n        /* \"#utility.yul\":1453:1454   */\n      dup2\n        /* \"#utility.yul\":1449:1458   */\n      add\n        /* \"#utility.yul\":1444:1458   */\n      swap1\n      pop\n        /* \"#utility.yul\":1409:1693   */\n      jump(tag_71)\n    tag_73:\n        /* \"#utility.yul\":1413:1427   */\n      pop\n        /* \"#utility.yul\":1709:1712   */\n      dup6\n        /* \"#utility.yul\":1702:1712   */\n      swap4\n      pop\n        /* \"#utility.yul\":1110:1718   */\n      pop\n      pop\n      pop\n        /* \"#utility.yul\":986:1718   */\n      swap3\n      swap2\n      pop\n      pop\n      jump\t// out\n        /* \"#utility.yul\":1724:2097   */\n    tag_9:\n        /* \"#utility.yul\":1867:1871   */\n      0x00\n        /* \"#utility.yul\":1905:1907   */\n      0x20\n        /* \"#utility.yul\":1894:1903   */\n      dup3\n        /* \"#utility.yul\":1890:1908   */\n      add\n        /* \"#utility.yul\":1882:1908   */\n      swap1\n      pop\n        /* \"#utility.yul\":1954:1963   */\n      dup2\n        /* \"#utility.yul\":1948:1952   */\n      dup2\n        /* \"#utility.yul\":1944:1964   */\n      sub\n        /* \"#utility.yul\":1940:1941   */\n      0x00\n        /* \"#utility.yul\":1929:1938   */\n      dup4\n        /* \"#utility.yul\":1925:1942   */\n      add\n        /* \"#utility.yul\":1918:1965   */\n      mstore\n        /* \"#utility.yul\":1982:2090   */\n      tag_77\n        /* \"#utility.yul\":2085:2089   */\n      dup2\n        /* \"#utility.yul\":2076:2082   */\n      dup5\n        /* \"#utility.yul\":1982:2090   */\n      tag_39\n      jump\t// in\n    tag_77:\n        /* \"#utility.yul\":1974:2090   */\n      swap1\n      pop\n        /* \"#utility.yul\":1724:2097   */\n      swap3\n      swap2\n      pop\n      pop\n      jump\t// out\n        /* \"#utility.yul\":2103:2189   */\n    tag_40:\n        /* \"#utility.yul\":2138:2145   */\n      0x00\n        /* \"#utility.yul\":2178:2182   */\n      0xff\n        /* \"#utility.yul\":2171:2176   */\n      dup3\n        /* \"#utility.yul\":2167:2183   */\n      and\n        /* \"#utility.yul\":2156:2183   */\n      swap1\n      pop\n        /* \"#utility.yul\":2103:2189   */\n      swap2\n      swap1\n      pop\n      jump\t// out\n        /* \"#utility.yul\":2195:2307   */\n    tag_41:\n        /* \"#utility.yul\":2278:2300   */\n      tag_80\n        /* \"#utility.yul\":2294:2299   */\n      dup2\n        /* \"#utility.yul\":2278:2300   */\n      tag_40\n      jump\t// in\n    tag_80:\n        /* \"#utility.yul\":2273:2276   */\n      dup3\n        /* \"#utility.yul\":2266:2301   */\n      mstore\n        /* \"#utility.yul\":2195:2307   */\n      pop\n      pop\n      jump\t// out\n        /* \"#utility.yul\":2313:2527   */\n    tag_13:\n        /* \"#utility.yul\":2402:2406   */\n      0x00\n        /* \"#utility.yul\":2440:2442   */\n      0x20\n        /* \"#utility.yul\":2429:2438   */\n      dup3\n        /* \"#utility.yul\":2425:2443   */\n      add\n        /* \"#utility.yul\":2417:2443   */\n      swap1\n      pop\n        /* \"#utility.yul\":2453:2520   */\n      tag_82\n        /* \"#utility.yul\":2517:2518   */\n      0x00\n        /* \"#utility.yul\":2506:2515   */\n      dup4\n        /* \"#utility.yul\":2502:2519   */\n      add\n        /* \"#utility.yul\":2493:2499   */\n      dup5\n        /* \"#utility.yul\":2453:2520   */\n      tag_41\n      jump\t// in\n    tag_82:\n        /* \"#utility.yul\":2313:2527   */\n      swap3\n      swap2\n      pop\n      pop\n      jump\t// out\n        /* \"#utility.yul\":2614:2731   */\n    tag_43:\n        /* \"#utility.yul\":2723:2724   */\n      0x00\n        /* \"#utility.yul\":2720:2721   */\n      0x00\n        /* \"#utility.yul\":2713:2725   */\n      revert\n        /* \"#utility.yul\":2860:2982   */\n    tag_45:\n        /* \"#utility.yul\":2933:2957   */\n      tag_87\n        /* \"#utility.yul\":2951:2956   */\n      dup2\n        /* \"#utility.yul\":2933:2957   */\n      tag_35\n      jump\t// in\n    tag_87:\n        /* \"#utility.yul\":2926:2931   */\n      dup2\n        /* \"#utility.yul\":2923:2958   */\n      eq\n        /* \"#utility.yul\":2913:2976   */\n      tag_88\n      jumpi\n        /* \"#utility.yul\":2972:2973   */\n      0x00\n        /* \"#utility.yul\":2969:2970   */\n      0x00\n        /* \"#utility.yul\":2962:2974   */\n      revert\n        /* \"#utility.yul\":2913:2976   */\n    tag_88:\n        /* \"#utility.yul\":2860:2982   */\n      pop\n      jump\t// out\n        /* \"#utility.yul\":2988:3127   */\n    tag_46:\n        /* \"#utility.yul\":3034:3039   */\n      0x00\n        /* \"#utility.yul\":3072:3078   */\n      dup2\n        /* \"#utility.yul\":3059:3079   */\n      calldataload\n        /* \"#utility.yul\":3050:3079   */\n      swap1\n      pop\n        /* \"#utility.yul\":3088:3121   */\n      tag_90\n        /* \"#utility.yul\":3115:3120   */\n      dup2\n        /* \"#utility.yul\":3088:3121   */\n      tag_45\n      jump\t// in\n    tag_90:\n        /* \"#utility.yul\":2988:3127   */\n      swap3\n      swap2\n      pop\n      pop\n      jump\t// out\n        /* \"#utility.yul\":3133:3462   */\n    tag_16:\n        /* \"#utility.yul\":3192:3198   */\n      0x00\n        /* \"#utility.yul\":3241:3243   */\n      0x20\n        /* \"#utility.yul\":3229:3238   */\n      dup3\n        /* \"#utility.yul\":3220:3227   */\n      dup5\n        /* \"#utility.yul\":3216:3239   */\n      sub\n        /* \"#utility.yul\":3212:3244   */\n      slt\n        /* \"#utility.yul\":3209:3328   */\n      iszero\n      tag_92\n      jumpi\n        /* \"#utility.yul\":3247:3326   */\n      tag_93\n      tag_43\n      jump\t// in\n    tag_93:\n        /* \"#utility.yul\":3209:3328   */\n    tag_92:\n        /* \"#utility.yul\":3367:3368   */\n      0x00\n        /* \"#utility.yul\":3392:3445   */\n      tag_94\n        /* \"#utility.yul\":3437:3444   */\n      dup5\n        /* \"#utility.yul\":3428:3434   */\n      dup3\n        /* \"#utility.yul\":3417:3426   */\n      dup6\n        /* \"#utility.yul\":3413:3435   */\n      add\n        /* \"#utility.yul\":3392:3445   */\n      tag_46\n      jump\t// in\n    tag_94:\n        /* \"#utility.yul\":3382:3445   */\n      swap2\n      pop\n        /* \"#utility.yul\":3338:3455   */\n      pop\n        /* \"#utility.yul\":3133:3462   */\n      swap3\n      swap2\n      pop\n      pop\n      jump\t// out\n        /* \"#utility.yul\":3468:3586   */\n    tag_47:\n        /* \"#utility.yul\":3555:3579   */\n      tag_96\n        /* \"#utility.yul\":3573:3578   */\n      dup2\n        /* \"#utility.yul\":3555:3579   */\n      tag_35\n      jump\t// in\n    tag_96:\n        /* \"#utility.yul\":3550:3553   */\n      dup3\n        /* \"#utility.yul\":3543:3580   */\n      mstore\n        /* \"#utility.yul\":3468:3586   */\n      pop\n      pop\n      jump\t// out\n        /* \"#utility.yul\":3592:3814   */\n    tag_19:\n        /* \"#utility.yul\":3685:3689   */\n      0x00\n        /* \"#utility.yul\":3723:3725   */\n      0x20\n        /* \"#utility.yul\":3712:3721   */\n      dup3\n        /* \"#utility.yul\":3708:3726   */\n      add\n        /* \"#utility.yul\":3700:3726   */\n      swap1\n      pop\n        /* \"#utility.yul\":3736:3807   */\n      tag_98\n        /* \"#utility.yul\":3804:3805   */\n      0x00\n        /* \"#utility.yul\":3793:3802   */\n      dup4\n        /* \"#utility.yul\":3789:3806   */\n      add\n        /* \"#utility.yul\":3780:3786   */\n      dup5\n        /* \"#utility.yul\":3736:3807   */\n      tag_47\n      jump\t// in\n    tag_98:\n        /* \"#utility.yul\":3592:3814   */\n      swap3\n      swap2\n      pop\n      pop\n      jump\t// out\n        /* \"#utility.yul\":3820:4000   */\n    tag_48:\n        /* \"#utility.yul\":3868:3945   */\n      0x4e487b7100000000000000000000000000000000000000000000000000000000\n        /* \"#utility.yul\":3865:3866   */\n      0x00\n        /* \"#utility.yul\":3858:3946   */\n      mstore\n        /* \"#utility.yul\":3965:3969   */\n      0x11\n        /* \"#utility.yul\":3962:3963   */\n      0x04\n        /* \"#utility.yul\":3955:3970   */\n      mstore\n        /* \"#utility.yul\":3989:3993   */\n      0x24\n        /* \"#utility.yul\":3986:3987   */\n      0x00\n        /* \"#utility.yul\":3979:3994   */\n      revert\n        /* \"#utility.yul\":4006:4173   */\n    tag_24:\n        /* \"#utility.yul\":4043:4046   */\n      0x00\n        /* \"#utility.yul\":4066:4088   */\n      tag_101\n        /* \"#utility.yul\":4082:4087   */\n      dup3\n        /* \"#utility.yul\":4066:4088   */\n      tag_40\n      jump\t// in\n    tag_101:\n        /* \"#utility.yul\":4057:4088   */\n      swap2\n      pop\n        /* \"#utility.yul\":4110:4114   */\n      0xff\n        /* \"#utility.yul\":4103:4108   */\n      dup3\n        /* \"#utility.yul\":4100:4115   */\n      sub\n        /* \"#utility.yul\":4097:4138   */\n      tag_102\n      jumpi\n        /* \"#utility.yul\":4118:4136   */\n      tag_103\n      tag_48\n      jump\t// in\n    tag_103:\n        /* \"#utility.yul\":4097:4138   */\n    tag_102:\n        /* \"#utility.yul\":4165:4166   */\n      0x01\n        /* \"#utility.yul\":4158:4163   */\n      dup3\n        /* \"#utility.yul\":4154:4167   */\n      add\n        /* \"#utility.yul\":4147:4167   */\n      swap1\n      pop\n        /* \"#utility.yul\":4006:4173   */\n      swap2\n      swap1\n      pop\n      jump\t// out\n        /* \"#utility.yul\":4179:4290   */\n    tag_49:\n        /* \"#utility.yul\":4243:4249   */\n      0x00\n        /* \"#utility.yul\":4277:4282   */\n      dup2\n        /* \"#utility.yul\":4271:4283   */\n      sload\n        /* \"#utility.yul\":4261:4283   */\n      swap1\n      pop\n        /* \"#utility.yul\":4179:4290   */\n      swap2\n      swap1\n      pop\n      jump\t// out\n        /* \"#utility.yul\":4296:4452   */\n    tag_50:\n        /* \"#utility.yul\":4360:4364   */\n      0x00\n        /* \"#utility.yul\":4383:4386   */\n      dup2\n        /* \"#utility.yul\":4375:4386   */\n      swap1\n      pop\n        /* \"#utility.yul\":4406:4409   */\n      dup2\n        /* \"#utility.yul\":4403:4404   */\n      0x00\n        /* \"#utility.yul\":4396:4410   */\n      mstore\n        /* \"#utility.yul\":4440:4444   */\n      0x20\n        /* \"#utility.yul\":4437:4438   */\n      0x00\n        /* \"#utility.yul\":4427:4445   */\n      keccak256\n        /* \"#utility.yul\":4419:4445   */\n      swap1\n      pop\n        /* \"#utility.yul\":4296:4452   */\n      swap2\n      swap1\n      pop\n      jump\t// out\n        /* \"#utility.yul\":4458:4560   */\n    tag_51:\n        /* \"#utility.yul\":4500:4508   */\n      0x00\n        /* \"#utility.yul\":4547:4552   */\n      dup2\n        /* \"#utility.yul\":4544:4545   */\n      0x00\n        /* \"#utility.yul\":4540:4553   */\n      shr\n        /* \"#utility.yul\":4519:4553   */\n      swap1\n      pop\n        /* \"#utility.yul\":4458:4560   */\n      swap2\n      swap1\n      pop\n      jump\t// out\n        /* \"#utility.yul\":4566:4656   */\n    tag_52:\n        /* \"#utility.yul\":4616:4623   */\n      0x00\n        /* \"#utility.yul\":4645:4650   */\n      dup2\n        /* \"#utility.yul\":4634:4650   */\n      swap1\n      pop\n        /* \"#utility.yul\":4566:4656   */\n      swap2\n      swap1\n      pop\n      jump\t// out\n        /* \"#utility.yul\":4662:4829   */\n    tag_53:\n        /* \"#utility.yul\":4732:4737   */\n      0x00\n        /* \"#utility.yul\":4757:4823   */\n      tag_109\n        /* \"#utility.yul\":4788:4822   */\n      tag_110\n        /* \"#utility.yul\":4811:4821   */\n      dup4\n        /* \"#utility.yul\":4788:4822   */\n      tag_51\n      jump\t// in\n    tag_110:\n        /* \"#utility.yul\":4757:4823   */\n      tag_52\n      jump\t// in\n    tag_109:\n        /* \"#utility.yul\":4748:4823   */\n      swap1\n      pop\n        /* \"#utility.yul\":4662:4829   */\n      swap2\n      swap1\n      pop\n      jump\t// out\n        /* \"#utility.yul\":4835:4980   */\n    tag_54:\n        /* \"#utility.yul\":4890:4895   */\n      0x00\n        /* \"#utility.yul\":4915:4973   */\n      tag_112\n        /* \"#utility.yul\":4967:4971   */\n      dup3\n        /* \"#utility.yul\":4961:4972   */\n      sload\n        /* \"#utility.yul\":4915:4973   */\n      tag_53\n      jump\t// in\n    tag_112:\n        /* \"#utility.yul\":4906:4973   */\n      swap1\n      pop\n        /* \"#utility.yul\":4835:4980   */\n      swap2\n      swap1\n      pop\n      jump\t// out\n        /* \"#utility.yul\":4986:5096   */\n    tag_55:\n        /* \"#utility.yul\":5053:5057   */\n      0x00\n        /* \"#utility.yul\":5085:5089   */\n      0x01\n        /* \"#utility.yul\":5080:5083   */\n      dup3\n        /* \"#utility.yul\":5076:5090   */\n      add\n        /* \"#utility.yul\":5068:5090   */\n      swap1\n      pop\n        /* \"#utility.yul\":4986:5096   */\n      swap2\n      swap1\n      pop\n      jump\t// out\n        /* \"#utility.yul\":5132:5883   */\n    tag_56:\n        /* \"#utility.yul\":5248:5251   */\n      0x00\n        /* \"#utility.yul\":5277:5328   */\n      tag_115\n        /* \"#utility.yul\":5322:5327   */\n      dup3\n        /* \"#utility.yul\":5277:5328   */\n      tag_49\n      jump\t// in\n    tag_115:\n        /* \"#utility.yul\":5344:5430   */\n      tag_116\n        /* \"#utility.yul\":5423:5429   */\n      dup2\n        /* \"#utility.yul\":5418:5421   */\n      dup6\n        /* \"#utility.yul\":5344:5430   */\n      tag_33\n      jump\t// in\n    tag_116:\n        /* \"#utility.yul\":5337:5430   */\n      swap4\n      pop\n        /* \"#utility.yul\":5454:5507   */\n      tag_117\n        /* \"#utility.yul\":5501:5506   */\n      dup4\n        /* \"#utility.yul\":5454:5507   */\n      tag_50\n      jump\t// in\n    tag_117:\n        /* \"#utility.yul\":5530:5537   */\n      dup1\n        /* \"#utility.yul\":5561:5562   */\n      0x00\n        /* \"#utility.yul\":5546:5858   */\n    tag_118:\n        /* \"#utility.yul\":5571:5577   */\n      dup4\n        /* \"#utility.yul\":5568:5569   */\n      dup2\n        /* \"#utility.yul\":5565:5578   */\n      lt\n        /* \"#utility.yul\":5546:5858   */\n      iszero\n      tag_120\n      jumpi\n        /* \"#utility.yul\":5641:5685   */\n      tag_121\n        /* \"#utility.yul\":5678:5684   */\n      dup3\n        /* \"#utility.yul\":5641:5685   */\n      tag_54\n      jump\t// in\n    tag_121:\n        /* \"#utility.yul\":5705:5768   */\n      tag_122\n        /* \"#utility.yul\":5764:5767   */\n      dup9\n        /* \"#utility.yul\":5749:5762   */\n      dup3\n        /* \"#utility.yul\":5705:5768   */\n      tag_37\n      jump\t// in\n    tag_122:\n        /* \"#utility.yul\":5698:5768   */\n      swap8\n      pop\n        /* \"#utility.yul\":5791:5848   */\n      tag_123\n        /* \"#utility.yul\":5841:5847   */\n      dup4\n        /* \"#utility.yul\":5791:5848   */\n      tag_55\n      jump\t// in\n    tag_123:\n        /* \"#utility.yul\":5781:5848   */\n      swap3\n      pop\n        /* \"#utility.yul\":5606:5858   */\n      pop\n        /* \"#utility.yul\":5593:5594   */\n      0x01\n        /* \"#utility.yul\":5590:5591   */\n      dup2\n        /* \"#utility.yul\":5586:5595   */\n      add\n        /* \"#utility.yul\":5581:5595   */\n      swap1\n      pop\n        /* \"#utility.yul\":5546:5858   */\n      jump(tag_118)\n    tag_120:\n        /* \"#utility.yul\":5550:5564   */\n      pop\n        /* \"#utility.yul\":5874:5877   */\n      dup6\n        /* \"#utility.yul\":5867:5877   */\n      swap4\n      pop\n        /* \"#utility.yul\":5253:5883   */\n      pop\n      pop\n      pop\n        /* \"#utility.yul\":5132:5883   */\n      swap3\n      swap2\n      pop\n      pop\n      jump\t// out\n        /* \"#utility.yul\":5889:6256   */\n    tag_27:\n        /* \"#utility.yul\":6029:6033   */\n      0x00\n        /* \"#utility.yul\":6067:6069   */\n      0x20\n        /* \"#utility.yul\":6056:6065   */\n      dup3\n        /* \"#utility.yul\":6052:6070   */\n      add\n        /* \"#utility.yul\":6044:6070   */\n      swap1\n      pop\n        /* \"#utility.yul\":6116:6125   */\n      dup2\n        /* \"#utility.yul\":6110:6114   */\n      dup2\n        /* \"#utility.yul\":6106:6126   */\n      sub\n        /* \"#utility.yul\":6102:6103   */\n      0x00\n        /* \"#utility.yul\":6091:6100   */\n      dup4\n        /* \"#utility.yul\":6087:6104   */\n      add\n        /* \"#utility.yul\":6080:6127   */\n      mstore\n        /* \"#utility.yul\":6144:6249   */\n      tag_125\n        /* \"#utility.yul\":6244:6248   */\n      dup2\n        /* \"#utility.yul\":6235:6241   */\n      dup5\n        /* \"#utility.yul\":6144:6249   */\n      tag_56\n      jump\t// in\n    tag_125:\n        /* \"#utility.yul\":6136:6249   */\n      swap1\n      pop\n        /* \"#utility.yul\":5889:6256   */\n      swap3\n      swap2\n      pop\n      pop\n      jump\t// out\n\n    auxdata: 0xa26469706673582212200dd2e64828e65f39a1e8e9382c8de1fbd337987c2c16e7d5aff0a005b2d92e9a64736f6c634300081e0033\n}\n",
				"bytecode": {
					"linkReferences": {},
					"object": "60806040525f60015f6101000a81548160ff021916908360ff1602179055503480156028575f5ffd5b50610503806100365f395ff3fe608060405234801561000f575f5ffd5b506004361061003f575f3560e01c8063a92100cb14610043578063b582ec5f14610061578063f0ba84401461007f575b5f5ffd5b61004b6100af565b60405161005891906102b9565b60405180910390f35b6100696101c8565b60405161007691906102f4565b60405180910390f35b6100996004803603810190610094919061033b565b6101da565b6040516100a69190610375565b60405180910390f35b60605b600560015f9054906101000a900460ff1660ff16101561013e5760015f81819054906101000a900460ff16809291906100ea906103bb565b91906101000a81548160ff021916908360ff160217905550505f60015f9054906101000a900460ff16908060018154018082558091505060019003905f5260205f20015f909160ff169091909150556100b2565b7f9f0c9e860ad79b9c17bac037cb816ee640148fd404e9580e4a111f90cfb6b3765f60405161016d91906104ad565b60405180910390a15f8054806020026020016040519081016040528092919081815260200182805480156101be57602002820191905f5260205f20905b8154815260200190600101908083116101aa575b5050505050905090565b60015f9054906101000a900460ff1681565b5f81815481106101e8575f80fd5b905f5260205f20015f915090505481565b5f81519050919050565b5f82825260208201905092915050565b5f819050602082019050919050565b5f819050919050565b61023481610222565b82525050565b5f610245838361022b565b60208301905092915050565b5f602082019050919050565b5f610267826101f9565b6102718185610203565b935061027c83610213565b805f5b838110156102ac578151610293888261023a565b975061029e83610251565b92505060018101905061027f565b5085935050505092915050565b5f6020820190508181035f8301526102d1818461025d565b905092915050565b5f60ff82169050919050565b6102ee816102d9565b82525050565b5f6020820190506103075f8301846102e5565b92915050565b5f5ffd5b61031a81610222565b8114610324575f5ffd5b50565b5f8135905061033581610311565b92915050565b5f602082840312156103505761034f61030d565b5b5f61035d84828501610327565b91505092915050565b61036f81610222565b82525050565b5f6020820190506103885f830184610366565b92915050565b7f4e487b71000000000000000000000000000000000000000000000000000000005f52601160045260245ffd5b5f6103c5826102d9565b915060ff82036103d8576103d761038e565b5b600182019050919050565b5f81549050919050565b5f819050815f5260205f209050919050565b5f815f1c9050919050565b5f819050919050565b5f610425610420836103ff565b61040a565b9050919050565b5f6104378254610413565b9050919050565b5f600182019050919050565b5f610454826103e3565b61045e8185610203565b9350610469836103ed565b805f5b838110156104a05761047d8261042c565b610487888261023a565b97506104928361043e565b92505060018101905061046c565b5085935050505092915050565b5f6020820190508181035f8301526104c5818461044a565b90509291505056fea26469706673582212200dd2e64828e65f39a1e8e9382c8de1fbd337987c2c16e7d5aff0a005b2d92e9a64736f6c634300081e0033",
					"opcodes": "PUSH1 0x80 PUSH1 0x40 MSTORE PUSH0 PUSH1 0x1 PUSH0 PUSH2 0x100 EXP DUP2 SLOAD DUP2 PUSH1 0xFF MUL NOT AND SWAP1 DUP4 PUSH1 0xFF AND MUL OR SWAP1 SSTORE POP CALLVALUE DUP1 ISZERO PUSH1 0x28 JUMPI PUSH0 PUSH0 REVERT JUMPDEST POP PUSH2 0x503 DUP1 PUSH2 0x36 PUSH0 CODECOPY PUSH0 RETURN INVALID PUSH1 0x80 PUSH1 0x40 MSTORE CALLVALUE DUP1 ISZERO PUSH2 0xF JUMPI PUSH0 PUSH0 REVERT JUMPDEST POP PUSH1 0x4 CALLDATASIZE LT PUSH2 0x3F JUMPI PUSH0 CALLDATALOAD PUSH1 0xE0 SHR DUP1 PUSH4 0xA92100CB EQ PUSH2 0x43 JUMPI DUP1 PUSH4 0xB582EC5F EQ PUSH2 0x61 JUMPI DUP1 PUSH4 0xF0BA8440 EQ PUSH2 0x7F JUMPI JUMPDEST PUSH0 PUSH0 REVERT JUMPDEST PUSH2 0x4B PUSH2 0xAF JUMP JUMPDEST PUSH1 0x40 MLOAD PUSH2 0x58 SWAP2 SWAP1 PUSH2 0x2B9 JUMP JUMPDEST PUSH1 0x40 MLOAD DUP1 SWAP2 SUB SWAP1 RETURN JUMPDEST PUSH2 0x69 PUSH2 0x1C8 JUMP JUMPDEST PUSH1 0x40 MLOAD PUSH2 0x76 SWAP2 SWAP1 PUSH2 0x2F4 JUMP JUMPDEST PUSH1 0x40 MLOAD DUP1 SWAP2 SUB SWAP1 RETURN JUMPDEST PUSH2 0x99 PUSH1 0x4 DUP1 CALLDATASIZE SUB DUP2 ADD SWAP1 PUSH2 0x94 SWAP2 SWAP1 PUSH2 0x33B JUMP JUMPDEST PUSH2 0x1DA JUMP JUMPDEST PUSH1 0x40 MLOAD PUSH2 0xA6 SWAP2 SWAP1 PUSH2 0x375 JUMP JUMPDEST PUSH1 0x40 MLOAD DUP1 SWAP2 SUB SWAP1 RETURN JUMPDEST PUSH1 0x60 JUMPDEST PUSH1 0x5 PUSH1 0x1 PUSH0 SWAP1 SLOAD SWAP1 PUSH2 0x100 EXP SWAP1 DIV PUSH1 0xFF AND PUSH1 0xFF AND LT ISZERO PUSH2 0x13E JUMPI PUSH1 0x1 PUSH0 DUP2 DUP2 SWAP1 SLOAD SWAP1 PUSH2 0x100 EXP SWAP1 DIV PUSH1 0xFF AND DUP1 SWAP3 SWAP2 SWAP1 PUSH2 0xEA SWAP1 PUSH2 0x3BB JUMP JUMPDEST SWAP2 SWAP1 PUSH2 0x100 EXP DUP2 SLOAD DUP2 PUSH1 0xFF MUL NOT AND SWAP1 DUP4 PUSH1 0xFF AND MUL OR SWAP1 SSTORE POP POP PUSH0 PUSH1 0x1 PUSH0 SWAP1 SLOAD SWAP1 PUSH2 0x100 EXP SWAP1 DIV PUSH1 0xFF AND SWAP1 DUP1 PUSH1 0x1 DUP2 SLOAD ADD DUP1 DUP3 SSTORE DUP1 SWAP2 POP POP PUSH1 0x1 SWAP1 SUB SWAP1 PUSH0 MSTORE PUSH1 0x20 PUSH0 KECCAK256 ADD PUSH0 SWAP1 SWAP2 PUSH1 0xFF AND SWAP1 SWAP2 SWAP1 SWAP2 POP SSTORE PUSH2 0xB2 JUMP JUMPDEST PUSH32 0x9F0C9E860AD79B9C17BAC037CB816EE640148FD404E9580E4A111F90CFB6B376 PUSH0 PUSH1 0x40 MLOAD PUSH2 0x16D SWAP2 SWAP1 PUSH2 0x4AD JUMP JUMPDEST PUSH1 0x40 MLOAD DUP1 SWAP2 SUB SWAP1 LOG1 PUSH0 DUP1 SLOAD DUP1 PUSH1 0x20 MUL PUSH1 0x20 ADD PUSH1 0x40 MLOAD SWAP1 DUP2 ADD PUSH1 0x40 MSTORE DUP1 SWAP3 SWAP2 SWAP1 DUP2 DUP2 MSTORE PUSH1 0x20 ADD DUP3 DUP1 SLOAD DUP1 ISZERO PUSH2 0x1BE JUMPI PUSH1 0x20 MUL DUP3 ADD SWAP2 SWAP1 PUSH0 MSTORE PUSH1 0x20 PUSH0 KECCAK256 SWAP1 JUMPDEST DUP2 SLOAD DUP2 MSTORE PUSH1 0x20 ADD SWAP1 PUSH1 0x1 ADD SWAP1 DUP1 DUP4 GT PUSH2 0x1AA JUMPI JUMPDEST POP POP POP POP POP SWAP1 POP SWAP1 JUMP JUMPDEST PUSH1 0x1 PUSH0 SWAP1 SLOAD SWAP1 PUSH2 0x100 EXP SWAP1 DIV PUSH1 0xFF AND DUP2 JUMP JUMPDEST PUSH0 DUP2 DUP2 SLOAD DUP2 LT PUSH2 0x1E8 JUMPI PUSH0 DUP1 REVERT JUMPDEST SWAP1 PUSH0 MSTORE PUSH1 0x20 PUSH0 KECCAK256 ADD PUSH0 SWAP2 POP SWAP1 POP SLOAD DUP2 JUMP JUMPDEST PUSH0 DUP2 MLOAD SWAP1 POP SWAP2 SWAP1 POP JUMP JUMPDEST PUSH0 DUP3 DUP3 MSTORE PUSH1 0x20 DUP3 ADD SWAP1 POP SWAP3 SWAP2 POP POP JUMP JUMPDEST PUSH0 DUP2 SWAP1 POP PUSH1 0x20 DUP3 ADD SWAP1 POP SWAP2 SWAP1 POP JUMP JUMPDEST PUSH0 DUP2 SWAP1 POP SWAP2 SWAP1 POP JUMP JUMPDEST PUSH2 0x234 DUP2 PUSH2 0x222 JUMP JUMPDEST DUP3 MSTORE POP POP JUMP JUMPDEST PUSH0 PUSH2 0x245 DUP4 DUP4 PUSH2 0x22B JUMP JUMPDEST PUSH1 0x20 DUP4 ADD SWAP1 POP SWAP3 SWAP2 POP POP JUMP JUMPDEST PUSH0 PUSH1 0x20 DUP3 ADD SWAP1 POP SWAP2 SWAP1 POP JUMP JUMPDEST PUSH0 PUSH2 0x267 DUP3 PUSH2 0x1F9 JUMP JUMPDEST PUSH2 0x271 DUP2 DUP6 PUSH2 0x203 JUMP JUMPDEST SWAP4 POP PUSH2 0x27C DUP4 PUSH2 0x213 JUMP JUMPDEST DUP1 PUSH0 JUMPDEST DUP4 DUP2 LT ISZERO PUSH2 0x2AC JUMPI DUP2 MLOAD PUSH2 0x293 DUP9 DUP3 PUSH2 0x23A JUMP JUMPDEST SWAP8 POP PUSH2 0x29E DUP4 PUSH2 0x251 JUMP JUMPDEST SWAP3 POP POP PUSH1 0x1 DUP2 ADD SWAP1 POP PUSH2 0x27F JUMP JUMPDEST POP DUP6 SWAP4 POP POP POP POP SWAP3 SWAP2 POP POP JUMP JUMPDEST PUSH0 PUSH1 0x20 DUP3 ADD SWAP1 POP DUP2 DUP2 SUB PUSH0 DUP4 ADD MSTORE PUSH2 0x2D1 DUP2 DUP5 PUSH2 0x25D JUMP JUMPDEST SWAP1 POP SWAP3 SWAP2 POP POP JUMP JUMPDEST PUSH0 PUSH1 0xFF DUP3 AND SWAP1 POP SWAP2 SWAP1 POP JUMP JUMPDEST PUSH2 0x2EE DUP2 PUSH2 0x2D9 JUMP JUMPDEST DUP3 MSTORE POP POP JUMP JUMPDEST PUSH0 PUSH1 0x20 DUP3 ADD SWAP1 POP PUSH2 0x307 PUSH0 DUP4 ADD DUP5 PUSH2 0x2E5 JUMP JUMPDEST SWAP3 SWAP2 POP POP JUMP JUMPDEST PUSH0 PUSH0 REVERT JUMPDEST PUSH2 0x31A DUP2 PUSH2 0x222 JUMP JUMPDEST DUP2 EQ PUSH2 0x324 JUMPI PUSH0 PUSH0 REVERT JUMPDEST POP JUMP JUMPDEST PUSH0 DUP2 CALLDATALOAD SWAP1 POP PUSH2 0x335 DUP2 PUSH2 0x311 JUMP JUMPDEST SWAP3 SWAP2 POP POP JUMP JUMPDEST PUSH0 PUSH1 0x20 DUP3 DUP5 SUB SLT ISZERO PUSH2 0x350 JUMPI PUSH2 0x34F PUSH2 0x30D JUMP JUMPDEST JUMPDEST PUSH0 PUSH2 0x35D DUP5 DUP3 DUP6 ADD PUSH2 0x327 JUMP JUMPDEST SWAP2 POP POP SWAP3 SWAP2 POP POP JUMP JUMPDEST PUSH2 0x36F DUP2 PUSH2 0x222 JUMP JUMPDEST DUP3 MSTORE POP POP JUMP JUMPDEST PUSH0 PUSH1 0x20 DUP3 ADD SWAP1 POP PUSH2 0x388 PUSH0 DUP4 ADD DUP5 PUSH2 0x366 JUMP JUMPDEST SWAP3 SWAP2 POP POP JUMP JUMPDEST PUSH32 0x4E487B7100000000000000000000000000000000000000000000000000000000 PUSH0 MSTORE PUSH1 0x11 PUSH1 0x4 MSTORE PUSH1 0x24 PUSH0 REVERT JUMPDEST PUSH0 PUSH2 0x3C5 DUP3 PUSH2 0x2D9 JUMP JUMPDEST SWAP2 POP PUSH1 0xFF DUP3 SUB PUSH2 0x3D8 JUMPI PUSH2 0x3D7 PUSH2 0x38E JUMP JUMPDEST JUMPDEST PUSH1 0x1 DUP3 ADD SWAP1 POP SWAP2 SWAP1 POP JUMP JUMPDEST PUSH0 DUP2 SLOAD SWAP1 POP SWAP2 SWAP1 POP JUMP JUMPDEST PUSH0 DUP2 SWAP1 POP DUP2 PUSH0 MSTORE PUSH1 0x20 PUSH0 KECCAK256 SWAP1 POP SWAP2 SWAP1 POP JUMP JUMPDEST PUSH0 DUP2 PUSH0 SHR SWAP1 POP SWAP2 SWAP1 POP JUMP JUMPDEST PUSH0 DUP2 SWAP1 POP SWAP2 SWAP1 POP JUMP JUMPDEST PUSH0 PUSH2 0x425 PUSH2 0x420 DUP4 PUSH2 0x3FF JUMP JUMPDEST PUSH2 0x40A JUMP JUMPDEST SWAP1 POP SWAP2 SWAP1 POP JUMP JUMPDEST PUSH0 PUSH2 0x437 DUP3 SLOAD PUSH2 0x413 JUMP JUMPDEST SWAP1 POP SWAP2 SWAP1 POP JUMP JUMPDEST PUSH0 PUSH1 0x1 DUP3 ADD SWAP1 POP SWAP2 SWAP1 POP JUMP JUMPDEST PUSH0 PUSH2 0x454 DUP3 PUSH2 0x3E3 JUMP JUMPDEST PUSH2 0x45E DUP2 DUP6 PUSH2 0x203 JUMP JUMPDEST SWAP4 POP PUSH2 0x469 DUP4 PUSH2 0x3ED JUMP JUMPDEST DUP1 PUSH0 JUMPDEST DUP4 DUP2 LT ISZERO PUSH2 0x4A0 JUMPI PUSH2 0x47D DUP3 PUSH2 0x42C JUMP JUMPDEST PUSH2 0x487 DUP9 DUP3 PUSH2 0x23A JUMP JUMPDEST SWAP8 POP PUSH2 0x492 DUP4 PUSH2 0x43E JUMP JUMPDEST SWAP3 POP POP PUSH1 0x1 DUP2 ADD SWAP1 POP PUSH2 0x46C JUMP JUMPDEST POP DUP6 SWAP4 POP POP POP POP SWAP3 SWAP2 POP POP JUMP JUMPDEST PUSH0 PUSH1 0x20 DUP3 ADD SWAP1 POP DUP2 DUP2 SUB PUSH0 DUP4 ADD MSTORE PUSH2 0x4C5 DUP2 DUP5 PUSH2 0x44A JUMP JUMPDEST SWAP1 POP SWAP3 SWAP2 POP POP JUMP INVALID LOG2 PUSH5 0x6970667358 0x22 SLT KECCAK256 0xD 0xD2 DUPN 0x48 0x28 DUPN 0x5F CODECOPY LOG1 0xE8 0xE9 CODESIZE 0x2C DUP14 RJUMPI 0xFBD3 CALLDATACOPY SWAP9 PUSH29 0x2C16E7D5AFF0A005B2D92E9A64736F6C634300081E0033000000000000 "
				},
				"gasEstimates": {
					"creation": {
						"codeDepositCost": "256600",
						"executionCost": "24563",
						"totalCost": "281163"
					},
					"external": {
						"data(uint256)": "infinite",
						"j()": "2466",
						"loop()": "infinite"
					}
				},
				"methodIdentifiers": {
					"data(uint256)": "f0ba8440",
					"j()": "b582ec5f",
					"loop()": "a92100cb"
				}
			},
			"storageLayout": {
				"storage": [
					{
						"astId": 4,
						"contract": "contracts/contracts/while1.sol:Types",
						"label": "data",
						"offset": 0,
						"slot": "0",
						"type": "t_array(t_uint256)dyn_storage"
					},
					{
						"astId": 7,
						"contract": "contracts/contracts/while1.sol:Types",
						"label": "j",
						"offset": 0,
						"slot": "1",
						"type": "t_uint8"
					}
				],
				"types": {
					"t_array(t_uint256)dyn_storage": {
						"base": "t_uint256",
						"encoding": "dynamic_array",
						"label": "uint256[]",
						"numberOfBytes": "32"
					},
					"t_uint256": {
						"encoding": "inplace",
						"label": "uint256",
						"numberOfBytes": "32"
					},
					"t_uint8": {
						"encoding": "inplace",
						"label": "uint8",
						"numberOfBytes": "1"
					}
				}
			},
			"userdoc": {
				"kind": "user",
				"methods": {},
				"version": 1
			}
		}
	}
}