{
	"contracts/contracts/ifelse1.sol": {
		"Types": {
			"abi": [
				{
					"inputs": [],
					"name": "decision_making",
					"outputs": [
						{
							"internalType": "string",
							"name": "",
							"type": "string"
						}
					],
					"stateMutability": "nonpayable",
					"type": "function"
				},
				{
					"inputs": [],
					"name": "i",
					"outputs": [
						{
							"internalType": "uint256",
							"name": "",
							"type": "uint256"
						}
					],
					"stateMutability": "view",
					"type": "function"
				},
				{
					"inputs": [],
					"name": "result",
					"outputs": [
						{
							"internalType": "string",
							"name": "",
							"type": "string"
						}
					],
					"stateMutability": "view",
					"type": "function"
				},
				{
					"inputs": [
						{
							"internalType": "uint256",
							"name": "_i",
							"type": "uint256"
						}
					],
					"name": "setI",
					"outputs": [],
					"stateMutability": "nonpayable",
					"type": "function"
				}
			],
			"devdoc": {
				"kind": "dev",
				"methods": {},
				"version": 1
			},
			"evm": {
				"assembly": "    /* \"contracts/contracts/ifelse1.sol\":86:720  contract Types { ... */\n  mstore(0x40, 0x80)\n    /* \"contracts/contracts/ifelse1.sol\":161:163  10 */\n  0x0a\n    /* \"contracts/contracts/ifelse1.sol\":145:163  uint public i = 10 */\n  0x00\n  sstore\n    /* \"contracts/contracts/ifelse1.sol\":86:720  contract Types { ... */\n  callvalue\n  dup1\n  iszero\n  tag_1\n  jumpi\n  revert(0x00, 0x00)\ntag_1:\n  pop\n  dataSize(sub_0)\n  dup1\n  dataOffset(sub_0)\n  0x00\n  codecopy\n  0x00\n  return\nstop\n\nsub_0: assembly {\n        /* \"contracts/contracts/ifelse1.sol\":86:720  contract Types { ... */\n      mstore(0x40, 0x80)\n      callvalue\n      dup1\n      iszero\n      tag_1\n      jumpi\n      revert(0x00, 0x00)\n    tag_1:\n      pop\n      jumpi(tag_2, lt(calldatasize, 0x04))\n      shr(0xe0, calldataload(0x00))\n      dup1\n      0x1294bdf4\n      eq\n      tag_3\n      jumpi\n      dup1\n      0x65372147\n      eq\n      tag_4\n      jumpi\n      dup1\n      0x8873af24\n      eq\n      tag_5\n      jumpi\n      dup1\n      0xe5aa3d58\n      eq\n      tag_6\n      jumpi\n    tag_2:\n      revert(0x00, 0x00)\n        /* \"contracts/contracts/ifelse1.sol\":662:717  function setI(uint _i) public {... */\n    tag_3:\n      tag_7\n      0x04\n      dup1\n      calldatasize\n      sub\n      dup2\n      add\n      swap1\n      tag_8\n      swap2\n      swap1\n      tag_9\n      jump\t// in\n    tag_8:\n      tag_10\n      jump\t// in\n    tag_7:\n      stop\n        /* \"contracts/contracts/ifelse1.sol\":219:239  string public result */\n    tag_4:\n      tag_11\n      tag_12\n      jump\t// in\n    tag_11:\n      mload(0x40)\n      tag_13\n      swap2\n      swap1\n      tag_14\n      jump\t// in\n    tag_13:\n      mload(0x40)\n      dup1\n      swap2\n      sub\n      swap1\n      return\n        /* \"contracts/contracts/ifelse1.sol\":325:614  function decision_making() public returns (string memory) {... */\n    tag_5:\n      tag_15\n      tag_16\n      jump\t// in\n    tag_15:\n      mload(0x40)\n      tag_17\n      swap2\n      swap1\n      tag_14\n      jump\t// in\n    tag_17:\n      mload(0x40)\n      dup1\n      swap2\n      sub\n      swap1\n      return\n        /* \"contracts/contracts/ifelse1.sol\":145:163  uint public i = 10 */\n    tag_6:\n      tag_18\n      tag_19\n      jump\t// in\n    tag_18:\n      mload(0x40)\n      tag_20\n      swap2\n      swap1\n      tag_21\n      jump\t// in\n    tag_20:\n      mload(0x40)\n      dup1\n      swap2\n      sub\n      swap1\n      return\n        /* \"contracts/contracts/ifelse1.sol\":662:717  function setI(uint _i) public {... */\n    tag_10:\n        /* \"contracts/contracts/ifelse1.sol\":707:709  _i */\n      dup1\n        /* \"contracts/contracts/ifelse1.sol\":703:704  i */\n      0x00\n        /* \"contracts/contracts/ifelse1.sol\":703:709  i = _i */\n      dup2\n      swap1\n      sstore\n      pop\n        /* \"contracts/contracts/ifelse1.sol\":662:717  function setI(uint _i) public {... */\n      pop\n      jump\t// out\n        /* \"contracts/contracts/ifelse1.sol\":219:239  string public result */\n    tag_12:\n      0x01\n      dup1\n      sload\n      tag_23\n      swap1\n      tag_24\n      jump\t// in\n    tag_23:\n      dup1\n      0x1f\n      add\n      0x20\n      dup1\n      swap2\n      div\n      mul\n      0x20\n      add\n      mload(0x40)\n      swap1\n      dup2\n      add\n      0x40\n      mstore\n      dup1\n      swap3\n      swap2\n      swap1\n      dup2\n      dup2\n      mstore\n      0x20\n      add\n      dup3\n      dup1\n      sload\n      tag_25\n      swap1\n      tag_24\n      jump\t// in\n    tag_25:\n      dup1\n      iszero\n      tag_26\n      jumpi\n      dup1\n      0x1f\n      lt\n      tag_27\n      jumpi\n      0x0100\n      dup1\n      dup4\n      sload\n      div\n      mul\n      dup4\n      mstore\n      swap2\n      0x20\n      add\n      swap2\n      jump(tag_26)\n    tag_27:\n      dup3\n      add\n      swap2\n      swap1\n      0x00\n      mstore\n      keccak256(0x00, 0x20)\n      swap1\n    tag_28:\n      dup2\n      sload\n      dup2\n      mstore\n      swap1\n      0x01\n      add\n      swap1\n      0x20\n      add\n      dup1\n      dup4\n      gt\n      tag_28\n      jumpi\n      dup3\n      swap1\n      sub\n      0x1f\n      and\n      dup3\n      add\n      swap2\n    tag_26:\n      pop\n      pop\n      pop\n      pop\n      pop\n      dup2\n      jump\t// out\n        /* \"contracts/contracts/ifelse1.sol\":325:614  function decision_making() public returns (string memory) {... */\n    tag_16:\n        /* \"contracts/contracts/ifelse1.sol\":368:381  string memory */\n      0x60\n        /* \"contracts/contracts/ifelse1.sol\":402:404  10 */\n      0x0a\n        /* \"contracts/contracts/ifelse1.sol\":398:399  i */\n      sload(0x00)\n        /* \"contracts/contracts/ifelse1.sol\":398:404  i < 10 */\n      lt\n        /* \"contracts/contracts/ifelse1.sol\":394:583  if (i < 10) {... */\n      iszero\n      tag_30\n      jumpi\n        /* \"contracts/contracts/ifelse1.sol\":421:444  result = \"less than 10\" */\n      mload(0x40)\n      dup1\n      0x40\n      add\n      0x40\n      mstore\n      dup1\n      0x0c\n      dup2\n      mstore\n      0x20\n      add\n      0x6c657373207468616e2031300000000000000000000000000000000000000000\n      dup2\n      mstore\n      pop\n        /* \"contracts/contracts/ifelse1.sol\":421:427  result */\n      0x01\n        /* \"contracts/contracts/ifelse1.sol\":421:444  result = \"less than 10\" */\n      swap1\n      dup2\n      tag_31\n      swap2\n      swap1\n      tag_32\n      jump\t// in\n    tag_31:\n      pop\n        /* \"contracts/contracts/ifelse1.sol\":394:583  if (i < 10) {... */\n      jump(tag_33)\n    tag_30:\n        /* \"contracts/contracts/ifelse1.sol\":471:473  10 */\n      0x0a\n        /* \"contracts/contracts/ifelse1.sol\":466:467  i */\n      sload(0x00)\n        /* \"contracts/contracts/ifelse1.sol\":466:473  i == 10 */\n      sub\n        /* \"contracts/contracts/ifelse1.sol\":462:583  if (i == 10) {... */\n      tag_34\n      jumpi\n        /* \"contracts/contracts/ifelse1.sol\":490:512  result = \"equal to 10\" */\n      mload(0x40)\n      dup1\n      0x40\n      add\n      0x40\n      mstore\n      dup1\n      0x0b\n      dup2\n      mstore\n      0x20\n      add\n      0x657175616c20746f203130000000000000000000000000000000000000000000\n      dup2\n      mstore\n      pop\n        /* \"contracts/contracts/ifelse1.sol\":490:496  result */\n      0x01\n        /* \"contracts/contracts/ifelse1.sol\":490:512  result = \"equal to 10\" */\n      swap1\n      dup2\n      tag_35\n      swap2\n      swap1\n      tag_32\n      jump\t// in\n    tag_35:\n      pop\n        /* \"contracts/contracts/ifelse1.sol\":462:583  if (i == 10) {... */\n      jump(tag_36)\n    tag_34:\n        /* \"contracts/contracts/ifelse1.sol\":545:571  result = \"greater than 10\" */\n      mload(0x40)\n      dup1\n      0x40\n      add\n      0x40\n      mstore\n      dup1\n      0x0f\n      dup2\n      mstore\n      0x20\n      add\n      0x67726561746572207468616e2031300000000000000000000000000000000000\n      dup2\n      mstore\n      pop\n        /* \"contracts/contracts/ifelse1.sol\":545:551  result */\n      0x01\n        /* \"contracts/contracts/ifelse1.sol\":545:571  result = \"greater than 10\" */\n      swap1\n      dup2\n      tag_37\n      swap2\n      swap1\n      tag_32\n      jump\t// in\n    tag_37:\n      pop\n        /* \"contracts/contracts/ifelse1.sol\":462:583  if (i == 10) {... */\n    tag_36:\n        /* \"contracts/contracts/ifelse1.sol\":394:583  if (i < 10) {... */\n    tag_33:\n        /* \"contracts/contracts/ifelse1.sol\":600:606  result */\n      0x01\n        /* \"contracts/contracts/ifelse1.sol\":593:606  return result */\n      dup1\n      sload\n      tag_38\n      swap1\n      tag_24\n      jump\t// in\n    tag_38:\n      dup1\n      0x1f\n      add\n      0x20\n      dup1\n      swap2\n      div\n      mul\n      0x20\n      add\n      mload(0x40)\n      swap1\n      dup2\n      add\n      0x40\n      mstore\n      dup1\n      swap3\n      swap2\n      swap1\n      dup2\n      dup2\n      mstore\n      0x20\n      add\n      dup3\n      dup1\n      sload\n      tag_39\n      swap1\n      tag_24\n      jump\t// in\n    tag_39:\n      dup1\n      iszero\n      tag_40\n      jumpi\n      dup1\n      0x1f\n      lt\n      tag_41\n      jumpi\n      0x0100\n      dup1\n      dup4\n      sload\n      div\n      mul\n      dup4\n      mstore\n      swap2\n      0x20\n      add\n      swap2\n      jump(tag_40)\n    tag_41:\n      dup3\n      add\n      swap2\n      swap1\n      0x00\n      mstore\n      keccak256(0x00, 0x20)\n      swap1\n    tag_42:\n      dup2\n      sload\n      dup2\n      mstore\n      swap1\n      0x01\n      add\n      swap1\n      0x20\n      add\n      dup1\n      dup4\n      gt\n      tag_42\n      jumpi\n      dup3\n      swap1\n      sub\n      0x1f\n      and\n      dup3\n      add\n      swap2\n    tag_40:\n      pop\n      pop\n      pop\n      pop\n      pop\n      swap1\n      pop\n        /* \"contracts/contracts/ifelse1.sol\":325:614  function decision_making() public returns (string memory) {... */\n      swap1\n      jump\t// out\n        /* \"contracts/contracts/ifelse1.sol\":145:163  uint public i = 10 */\n    tag_19:\n      sload(0x00)\n      dup2\n      jump\t// out\n        /* \"#utility.yul\":88:205   */\n    tag_44:\n        /* \"#utility.yul\":197:198   */\n      0x00\n        /* \"#utility.yul\":194:195   */\n      0x00\n        /* \"#utility.yul\":187:199   */\n      revert\n        /* \"#utility.yul\":334:411   */\n    tag_46:\n        /* \"#utility.yul\":371:378   */\n      0x00\n        /* \"#utility.yul\":400:405   */\n      dup2\n        /* \"#utility.yul\":389:405   */\n      swap1\n      pop\n        /* \"#utility.yul\":334:411   */\n      swap2\n      swap1\n      pop\n      jump\t// out\n        /* \"#utility.yul\":417:539   */\n    tag_47:\n        /* \"#utility.yul\":490:514   */\n      tag_78\n        /* \"#utility.yul\":508:513   */\n      dup2\n        /* \"#utility.yul\":490:514   */\n      tag_46\n      jump\t// in\n    tag_78:\n        /* \"#utility.yul\":483:488   */\n      dup2\n        /* \"#utility.yul\":480:515   */\n      eq\n        /* \"#utility.yul\":470:533   */\n      tag_79\n      jumpi\n        /* \"#utility.yul\":529:530   */\n      0x00\n        /* \"#utility.yul\":526:527   */\n      0x00\n        /* \"#utility.yul\":519:531   */\n      revert\n        /* \"#utility.yul\":470:533   */\n    tag_79:\n        /* \"#utility.yul\":417:539   */\n      pop\n      jump\t// out\n        /* \"#utility.yul\":545:684   */\n    tag_48:\n        /* \"#utility.yul\":591:596   */\n      0x00\n        /* \"#utility.yul\":629:635   */\n      dup2\n        /* \"#utility.yul\":616:636   */\n      calldataload\n        /* \"#utility.yul\":607:636   */\n      swap1\n      pop\n        /* \"#utility.yul\":645:678   */\n      tag_81\n        /* \"#utility.yul\":672:677   */\n      dup2\n        /* \"#utility.yul\":645:678   */\n      tag_47\n      jump\t// in\n    tag_81:\n        /* \"#utility.yul\":545:684   */\n      swap3\n      swap2\n      pop\n      pop\n      jump\t// out\n        /* \"#utility.yul\":690:1019   */\n    tag_9:\n        /* \"#utility.yul\":749:755   */\n      0x00\n        /* \"#utility.yul\":798:800   */\n      0x20\n        /* \"#utility.yul\":786:795   */\n      dup3\n        /* \"#utility.yul\":777:784   */\n      dup5\n        /* \"#utility.yul\":773:796   */\n      sub\n        /* \"#utility.yul\":769:801   */\n      slt\n        /* \"#utility.yul\":766:885   */\n      iszero\n      tag_83\n      jumpi\n        /* \"#utility.yul\":804:883   */\n      tag_84\n      tag_44\n      jump\t// in\n    tag_84:\n        /* \"#utility.yul\":766:885   */\n    tag_83:\n        /* \"#utility.yul\":924:925   */\n      0x00\n        /* \"#utility.yul\":949:1002   */\n      tag_85\n        /* \"#utility.yul\":994:1001   */\n      dup5\n        /* \"#utility.yul\":985:991   */\n      dup3\n        /* \"#utility.yul\":974:983   */\n      dup6\n        /* \"#utility.yul\":970:992   */\n      add\n        /* \"#utility.yul\":949:1002   */\n      tag_48\n      jump\t// in\n    tag_85:\n        /* \"#utility.yul\":939:1002   */\n      swap2\n      pop\n        /* \"#utility.yul\":895:1012   */\n      pop\n        /* \"#utility.yul\":690:1019   */\n      swap3\n      swap2\n      pop\n      pop\n      jump\t// out\n        /* \"#utility.yul\":1025:1124   */\n    tag_49:\n        /* \"#utility.yul\":1077:1083   */\n      0x00\n        /* \"#utility.yul\":1111:1116   */\n      dup2\n        /* \"#utility.yul\":1105:1117   */\n      mload\n        /* \"#utility.yul\":1095:1117   */\n      swap1\n      pop\n        /* \"#utility.yul\":1025:1124   */\n      swap2\n      swap1\n      pop\n      jump\t// out\n        /* \"#utility.yul\":1130:1299   */\n    tag_50:\n        /* \"#utility.yul\":1214:1225   */\n      0x00\n        /* \"#utility.yul\":1248:1254   */\n      dup3\n        /* \"#utility.yul\":1243:1246   */\n      dup3\n        /* \"#utility.yul\":1236:1255   */\n      mstore\n        /* \"#utility.yul\":1288:1292   */\n      0x20\n        /* \"#utility.yul\":1283:1286   */\n      dup3\n        /* \"#utility.yul\":1279:1293   */\n      add\n        /* \"#utility.yul\":1264:1293   */\n      swap1\n      pop\n        /* \"#utility.yul\":1130:1299   */\n      swap3\n      swap2\n      pop\n      pop\n      jump\t// out\n        /* \"#utility.yul\":1305:1444   */\n    tag_51:\n        /* \"#utility.yul\":1394:1400   */\n      dup3\n        /* \"#utility.yul\":1389:1392   */\n      dup2\n        /* \"#utility.yul\":1384:1387   */\n      dup4\n        /* \"#utility.yul\":1378:1401   */\n      mcopy\n        /* \"#utility.yul\":1435:1436   */\n      0x00\n        /* \"#utility.yul\":1426:1432   */\n      dup4\n        /* \"#utility.yul\":1421:1424   */\n      dup4\n        /* \"#utility.yul\":1417:1433   */\n      add\n        /* \"#utility.yul\":1410:1437   */\n      mstore\n        /* \"#utility.yul\":1305:1444   */\n      pop\n      pop\n      pop\n      jump\t// out\n        /* \"#utility.yul\":1450:1552   */\n    tag_52:\n        /* \"#utility.yul\":1491:1497   */\n      0x00\n        /* \"#utility.yul\":1542:1544   */\n      0x1f\n        /* \"#utility.yul\":1538:1545   */\n      not\n        /* \"#utility.yul\":1533:1535   */\n      0x1f\n        /* \"#utility.yul\":1526:1531   */\n      dup4\n        /* \"#utility.yul\":1522:1536   */\n      add\n        /* \"#utility.yul\":1518:1546   */\n      and\n        /* \"#utility.yul\":1508:1546   */\n      swap1\n      pop\n        /* \"#utility.yul\":1450:1552   */\n      swap2\n      swap1\n      pop\n      jump\t// out\n        /* \"#utility.yul\":1558:1935   */\n    tag_53:\n        /* \"#utility.yul\":1646:1649   */\n      0x00\n        /* \"#utility.yul\":1674:1713   */\n      tag_91\n        /* \"#utility.yul\":1707:1712   */\n      dup3\n        /* \"#utility.yul\":1674:1713   */\n      tag_49\n      jump\t// in\n    tag_91:\n        /* \"#utility.yul\":1729:1800   */\n      tag_92\n        /* \"#utility.yul\":1793:1799   */\n      dup2\n        /* \"#utility.yul\":1788:1791   */\n      dup6\n        /* \"#utility.yul\":1729:1800   */\n      tag_50\n      jump\t// in\n    tag_92:\n        /* \"#utility.yul\":1722:1800   */\n      swap4\n      pop\n        /* \"#utility.yul\":1809:1874   */\n      tag_93\n        /* \"#utility.yul\":1867:1873   */\n      dup2\n        /* \"#utility.yul\":1862:1865   */\n      dup6\n        /* \"#utility.yul\":1855:1859   */\n      0x20\n        /* \"#utility.yul\":1848:1853   */\n      dup7\n        /* \"#utility.yul\":1844:1860   */\n      add\n        /* \"#utility.yul\":1809:1874   */\n      tag_51\n      jump\t// in\n    tag_93:\n        /* \"#utility.yul\":1899:1928   */\n      tag_94\n        /* \"#utility.yul\":1921:1927   */\n      dup2\n        /* \"#utility.yul\":1899:1928   */\n      tag_52\n      jump\t// in\n    tag_94:\n        /* \"#utility.yul\":1894:1897   */\n      dup5\n        /* \"#utility.yul\":1890:1929   */\n      add\n        /* \"#utility.yul\":1883:1929   */\n      swap2\n      pop\n        /* \"#utility.yul\":1650:1935   */\n      pop\n        /* \"#utility.yul\":1558:1935   */\n      swap3\n      swap2\n      pop\n      pop\n      jump\t// out\n        /* \"#utility.yul\":1941:2254   */\n    tag_14:\n        /* \"#utility.yul\":2054:2058   */\n      0x00\n        /* \"#utility.yul\":2092:2094   */\n      0x20\n        /* \"#utility.yul\":2081:2090   */\n      dup3\n        /* \"#utility.yul\":2077:2095   */\n      add\n        /* \"#utility.yul\":2069:2095   */\n      swap1\n      pop\n        /* \"#utility.yul\":2141:2150   */\n      dup2\n        /* \"#utility.yul\":2135:2139   */\n      dup2\n        /* \"#utility.yul\":2131:2151   */\n      sub\n        /* \"#utility.yul\":2127:2128   */\n      0x00\n        /* \"#utility.yul\":2116:2125   */\n      dup4\n        /* \"#utility.yul\":2112:2129   */\n      add\n        /* \"#utility.yul\":2105:2152   */\n      mstore\n        /* \"#utility.yul\":2169:2247   */\n      tag_96\n        /* \"#utility.yul\":2242:2246   */\n      dup2\n        /* \"#utility.yul\":2233:2239   */\n      dup5\n        /* \"#utility.yul\":2169:2247   */\n      tag_53\n      jump\t// in\n    tag_96:\n        /* \"#utility.yul\":2161:2247   */\n      swap1\n      pop\n        /* \"#utility.yul\":1941:2254   */\n      swap3\n      swap2\n      pop\n      pop\n      jump\t// out\n        /* \"#utility.yul\":2260:2378   */\n    tag_54:\n        /* \"#utility.yul\":2347:2371   */\n      tag_98\n        /* \"#utility.yul\":2365:2370   */\n      dup2\n        /* \"#utility.yul\":2347:2371   */\n      tag_46\n      jump\t// in\n    tag_98:\n        /* \"#utility.yul\":2342:2345   */\n      dup3\n        /* \"#utility.yul\":2335:2372   */\n      mstore\n        /* \"#utility.yul\":2260:2378   */\n      pop\n      pop\n      jump\t// out\n        /* \"#utility.yul\":2384:2606   */\n    tag_21:\n        /* \"#utility.yul\":2477:2481   */\n      0x00\n        /* \"#utility.yul\":2515:2517   */\n      0x20\n        /* \"#utility.yul\":2504:2513   */\n      dup3\n        /* \"#utility.yul\":2500:2518   */\n      add\n        /* \"#utility.yul\":2492:2518   */\n      swap1\n      pop\n        /* \"#utility.yul\":2528:2599   */\n      tag_100\n        /* \"#utility.yul\":2596:2597   */\n      0x00\n        /* \"#utility.yul\":2585:2594   */\n      dup4\n        /* \"#utility.yul\":2581:2598   */\n      add\n        /* \"#utility.yul\":2572:2578   */\n      dup5\n        /* \"#utility.yul\":2528:2599   */\n      tag_54\n      jump\t// in\n    tag_100:\n        /* \"#utility.yul\":2384:2606   */\n      swap3\n      swap2\n      pop\n      pop\n      jump\t// out\n        /* \"#utility.yul\":2612:2792   */\n    tag_55:\n        /* \"#utility.yul\":2660:2737   */\n      0x4e487b7100000000000000000000000000000000000000000000000000000000\n        /* \"#utility.yul\":2657:2658   */\n      0x00\n        /* \"#utility.yul\":2650:2738   */\n      mstore\n        /* \"#utility.yul\":2757:2761   */\n      0x22\n        /* \"#utility.yul\":2754:2755   */\n      0x04\n        /* \"#utility.yul\":2747:2762   */\n      mstore\n        /* \"#utility.yul\":2781:2785   */\n      0x24\n        /* \"#utility.yul\":2778:2779   */\n      0x00\n        /* \"#utility.yul\":2771:2786   */\n      revert\n        /* \"#utility.yul\":2798:3118   */\n    tag_24:\n        /* \"#utility.yul\":2842:2848   */\n      0x00\n        /* \"#utility.yul\":2879:2880   */\n      0x02\n        /* \"#utility.yul\":2873:2877   */\n      dup3\n        /* \"#utility.yul\":2869:2881   */\n      div\n        /* \"#utility.yul\":2859:2881   */\n      swap1\n      pop\n        /* \"#utility.yul\":2926:2927   */\n      0x01\n        /* \"#utility.yul\":2920:2924   */\n      dup3\n        /* \"#utility.yul\":2916:2928   */\n      and\n        /* \"#utility.yul\":2947:2965   */\n      dup1\n        /* \"#utility.yul\":2937:3018   */\n      tag_103\n      jumpi\n        /* \"#utility.yul\":3003:3007   */\n      0x7f\n        /* \"#utility.yul\":2995:3001   */\n      dup3\n        /* \"#utility.yul\":2991:3008   */\n      and\n        /* \"#utility.yul\":2981:3008   */\n      swap2\n      pop\n        /* \"#utility.yul\":2937:3018   */\n    tag_103:\n        /* \"#utility.yul\":3065:3067   */\n      0x20\n        /* \"#utility.yul\":3057:3063   */\n      dup3\n        /* \"#utility.yul\":3054:3068   */\n      lt\n        /* \"#utility.yul\":3034:3052   */\n      dup2\n        /* \"#utility.yul\":3031:3069   */\n      sub\n        /* \"#utility.yul\":3028:3112   */\n      tag_104\n      jumpi\n        /* \"#utility.yul\":3084:3102   */\n      tag_105\n      tag_55\n      jump\t// in\n    tag_105:\n        /* \"#utility.yul\":3028:3112   */\n    tag_104:\n        /* \"#utility.yul\":2849:3118   */\n      pop\n        /* \"#utility.yul\":2798:3118   */\n      swap2\n      swap1\n      pop\n      jump\t// out\n        /* \"#utility.yul\":3124:3304   */\n    tag_56:\n        /* \"#utility.yul\":3172:3249   */\n      0x4e487b7100000000000000000000000000000000000000000000000000000000\n        /* \"#utility.yul\":3169:3170   */\n      0x00\n        /* \"#utility.yul\":3162:3250   */\n      mstore\n        /* \"#utility.yul\":3269:3273   */\n      0x41\n        /* \"#utility.yul\":3266:3267   */\n      0x04\n        /* \"#utility.yul\":3259:3274   */\n      mstore\n        /* \"#utility.yul\":3293:3297   */\n      0x24\n        /* \"#utility.yul\":3290:3291   */\n      0x00\n        /* \"#utility.yul\":3283:3298   */\n      revert\n        /* \"#utility.yul\":3310:3451   */\n    tag_57:\n        /* \"#utility.yul\":3359:3363   */\n      0x00\n        /* \"#utility.yul\":3382:3385   */\n      dup2\n        /* \"#utility.yul\":3374:3385   */\n      swap1\n      pop\n        /* \"#utility.yul\":3405:3408   */\n      dup2\n        /* \"#utility.yul\":3402:3403   */\n      0x00\n        /* \"#utility.yul\":3395:3409   */\n      mstore\n        /* \"#utility.yul\":3439:3443   */\n      0x20\n        /* \"#utility.yul\":3436:3437   */\n      0x00\n        /* \"#utility.yul\":3426:3444   */\n      keccak256\n        /* \"#utility.yul\":3418:3444   */\n      swap1\n      pop\n        /* \"#utility.yul\":3310:3451   */\n      swap2\n      swap1\n      pop\n      jump\t// out\n        /* \"#utility.yul\":3457:3550   */\n    tag_58:\n        /* \"#utility.yul\":3494:3500   */\n      0x00\n        /* \"#utility.yul\":3541:3543   */\n      0x20\n        /* \"#utility.yul\":3536:3538   */\n      0x1f\n        /* \"#utility.yul\":3529:3534   */\n      dup4\n        /* \"#utility.yul\":3525:3539   */\n      add\n        /* \"#utility.yul\":3521:3544   */\n      div\n        /* \"#utility.yul\":3511:3544   */\n      swap1\n      pop\n        /* \"#utility.yul\":3457:3550   */\n      swap2\n      swap1\n      pop\n      jump\t// out\n        /* \"#utility.yul\":3556:3663   */\n    tag_59:\n        /* \"#utility.yul\":3600:3608   */\n      0x00\n        /* \"#utility.yul\":3650:3655   */\n      dup3\n        /* \"#utility.yul\":3644:3648   */\n      dup3\n        /* \"#utility.yul\":3640:3656   */\n      shl\n        /* \"#utility.yul\":3619:3656   */\n      swap1\n      pop\n        /* \"#utility.yul\":3556:3663   */\n      swap3\n      swap2\n      pop\n      pop\n      jump\t// out\n        /* \"#utility.yul\":3669:4062   */\n    tag_60:\n        /* \"#utility.yul\":3738:3744   */\n      0x00\n        /* \"#utility.yul\":3788:3789   */\n      0x08\n        /* \"#utility.yul\":3776:3786   */\n      dup4\n        /* \"#utility.yul\":3772:3790   */\n      mul\n        /* \"#utility.yul\":3811:3908   */\n      tag_111\n        /* \"#utility.yul\":3841:3907   */\n      0xffffffffffffffffffffffffffffffffffffffffffffffffffffffffffffffff\n        /* \"#utility.yul\":3830:3839   */\n      dup3\n        /* \"#utility.yul\":3811:3908   */\n      tag_59\n      jump\t// in\n    tag_111:\n        /* \"#utility.yul\":3929:3968   */\n      tag_112\n        /* \"#utility.yul\":3959:3967   */\n      dup7\n        /* \"#utility.yul\":3948:3957   */\n      dup4\n        /* \"#utility.yul\":3929:3968   */\n      tag_59\n      jump\t// in\n    tag_112:\n        /* \"#utility.yul\":3917:3968   */\n      swap6\n      pop\n        /* \"#utility.yul\":4001:4005   */\n      dup1\n        /* \"#utility.yul\":3997:4006   */\n      not\n        /* \"#utility.yul\":3990:3995   */\n      dup5\n        /* \"#utility.yul\":3986:4007   */\n      and\n        /* \"#utility.yul\":3977:4007   */\n      swap4\n      pop\n        /* \"#utility.yul\":4050:4054   */\n      dup1\n        /* \"#utility.yul\":4040:4048   */\n      dup7\n        /* \"#utility.yul\":4036:4055   */\n      and\n        /* \"#utility.yul\":4029:4034   */\n      dup5\n        /* \"#utility.yul\":4026:4056   */\n      or\n        /* \"#utility.yul\":4016:4056   */\n      swap3\n      pop\n        /* \"#utility.yul\":3745:4062   */\n      pop\n      pop\n        /* \"#utility.yul\":3669:4062   */\n      swap4\n      swap3\n      pop\n      pop\n      pop\n      jump\t// out\n        /* \"#utility.yul\":4068:4128   */\n    tag_61:\n        /* \"#utility.yul\":4096:4099   */\n      0x00\n        /* \"#utility.yul\":4117:4122   */\n      dup2\n        /* \"#utility.yul\":4110:4122   */\n      swap1\n      pop\n        /* \"#utility.yul\":4068:4128   */\n      swap2\n      swap1\n      pop\n      jump\t// out\n        /* \"#utility.yul\":4134:4276   */\n    tag_62:\n        /* \"#utility.yul\":4184:4193   */\n      0x00\n        /* \"#utility.yul\":4217:4270   */\n      tag_115\n        /* \"#utility.yul\":4235:4269   */\n      tag_116\n        /* \"#utility.yul\":4244:4268   */\n      tag_117\n        /* \"#utility.yul\":4262:4267   */\n      dup5\n        /* \"#utility.yul\":4244:4268   */\n      tag_46\n      jump\t// in\n    tag_117:\n        /* \"#utility.yul\":4235:4269   */\n      tag_61\n      jump\t// in\n    tag_116:\n        /* \"#utility.yul\":4217:4270   */\n      tag_46\n      jump\t// in\n    tag_115:\n        /* \"#utility.yul\":4204:4270   */\n      swap1\n      pop\n        /* \"#utility.yul\":4134:4276   */\n      swap2\n      swap1\n      pop\n      jump\t// out\n        /* \"#utility.yul\":4282:4357   */\n    tag_63:\n        /* \"#utility.yul\":4325:4328   */\n      0x00\n        /* \"#utility.yul\":4346:4351   */\n      dup2\n        /* \"#utility.yul\":4339:4351   */\n      swap1\n      pop\n        /* \"#utility.yul\":4282:4357   */\n      swap2\n      swap1\n      pop\n      jump\t// out\n        /* \"#utility.yul\":4363:4632   */\n    tag_64:\n        /* \"#utility.yul\":4473:4512   */\n      tag_120\n        /* \"#utility.yul\":4504:4511   */\n      dup4\n        /* \"#utility.yul\":4473:4512   */\n      tag_62\n      jump\t// in\n    tag_120:\n        /* \"#utility.yul\":4534:4625   */\n      tag_121\n        /* \"#utility.yul\":4583:4624   */\n      tag_122\n        /* \"#utility.yul\":4607:4623   */\n      dup3\n        /* \"#utility.yul\":4583:4624   */\n      tag_63\n      jump\t// in\n    tag_122:\n        /* \"#utility.yul\":4575:4581   */\n      dup5\n        /* \"#utility.yul\":4568:4572   */\n      dup5\n        /* \"#utility.yul\":4562:4573   */\n      sload\n        /* \"#utility.yul\":4534:4625   */\n      tag_60\n      jump\t// in\n    tag_121:\n        /* \"#utility.yul\":4528:4532   */\n      dup3\n        /* \"#utility.yul\":4521:4626   */\n      sstore\n        /* \"#utility.yul\":4439:4632   */\n      pop\n        /* \"#utility.yul\":4363:4632   */\n      pop\n      pop\n      pop\n      jump\t// out\n        /* \"#utility.yul\":4638:4711   */\n    tag_65:\n        /* \"#utility.yul\":4683:4686   */\n      0x00\n        /* \"#utility.yul\":4704:4705   */\n      0x00\n        /* \"#utility.yul\":4697:4705   */\n      swap1\n      pop\n        /* \"#utility.yul\":4638:4711   */\n      swap1\n      jump\t// out\n        /* \"#utility.yul\":4717:4906   */\n    tag_66:\n        /* \"#utility.yul\":4794:4826   */\n      tag_125\n      tag_65\n      jump\t// in\n    tag_125:\n        /* \"#utility.yul\":4835:4900   */\n      tag_126\n        /* \"#utility.yul\":4893:4899   */\n      dup2\n        /* \"#utility.yul\":4885:4891   */\n      dup5\n        /* \"#utility.yul\":4879:4883   */\n      dup5\n        /* \"#utility.yul\":4835:4900   */\n      tag_64\n      jump\t// in\n    tag_126:\n        /* \"#utility.yul\":4770:4906   */\n      pop\n        /* \"#utility.yul\":4717:4906   */\n      pop\n      pop\n      jump\t// out\n        /* \"#utility.yul\":4912:5098   */\n    tag_67:\n        /* \"#utility.yul\":4972:5092   */\n    tag_128:\n        /* \"#utility.yul\":4989:4992   */\n      dup2\n        /* \"#utility.yul\":4982:4987   */\n      dup2\n        /* \"#utility.yul\":4979:4993   */\n      lt\n        /* \"#utility.yul\":4972:5092   */\n      iszero\n      tag_130\n      jumpi\n        /* \"#utility.yul\":5043:5082   */\n      tag_131\n        /* \"#utility.yul\":5080:5081   */\n      0x00\n        /* \"#utility.yul\":5073:5078   */\n      dup3\n        /* \"#utility.yul\":5043:5082   */\n      tag_66\n      jump\t// in\n    tag_131:\n        /* \"#utility.yul\":5016:5017   */\n      0x01\n        /* \"#utility.yul\":5009:5014   */\n      dup2\n        /* \"#utility.yul\":5005:5018   */\n      add\n        /* \"#utility.yul\":4996:5018   */\n      swap1\n      pop\n        /* \"#utility.yul\":4972:5092   */\n      jump(tag_128)\n    tag_130:\n        /* \"#utility.yul\":4912:5098   */\n      pop\n      pop\n      jump\t// out\n        /* \"#utility.yul\":5104:5647   */\n    tag_68:\n        /* \"#utility.yul\":5205:5207   */\n      0x1f\n        /* \"#utility.yul\":5200:5203   */\n      dup3\n        /* \"#utility.yul\":5197:5208   */\n      gt\n        /* \"#utility.yul\":5194:5640   */\n      iszero\n      tag_133\n      jumpi\n        /* \"#utility.yul\":5239:5277   */\n      tag_134\n        /* \"#utility.yul\":5271:5276   */\n      dup2\n        /* \"#utility.yul\":5239:5277   */\n      tag_57\n      jump\t// in\n    tag_134:\n        /* \"#utility.yul\":5323:5352   */\n      tag_135\n        /* \"#utility.yul\":5341:5351   */\n      dup5\n        /* \"#utility.yul\":5323:5352   */\n      tag_58\n      jump\t// in\n    tag_135:\n        /* \"#utility.yul\":5313:5321   */\n      dup2\n        /* \"#utility.yul\":5309:5353   */\n      add\n        /* \"#utility.yul\":5506:5508   */\n      0x20\n        /* \"#utility.yul\":5494:5504   */\n      dup6\n        /* \"#utility.yul\":5491:5509   */\n      lt\n        /* \"#utility.yul\":5488:5537   */\n      iszero\n      tag_136\n      jumpi\n        /* \"#utility.yul\":5527:5535   */\n      dup2\n        /* \"#utility.yul\":5512:5535   */\n      swap1\n      pop\n        /* \"#utility.yul\":5488:5537   */\n    tag_136:\n        /* \"#utility.yul\":5550:5630   */\n      tag_137\n        /* \"#utility.yul\":5606:5628   */\n      tag_138\n        /* \"#utility.yul\":5624:5627   */\n      dup6\n        /* \"#utility.yul\":5606:5628   */\n      tag_58\n      jump\t// in\n    tag_138:\n        /* \"#utility.yul\":5596:5604   */\n      dup4\n        /* \"#utility.yul\":5592:5629   */\n      add\n        /* \"#utility.yul\":5579:5590   */\n      dup3\n        /* \"#utility.yul\":5550:5630   */\n      tag_67\n      jump\t// in\n    tag_137:\n        /* \"#utility.yul\":5209:5640   */\n      pop\n      pop\n        /* \"#utility.yul\":5194:5640   */\n    tag_133:\n        /* \"#utility.yul\":5104:5647   */\n      pop\n      pop\n      pop\n      jump\t// out\n        /* \"#utility.yul\":5653:5770   */\n    tag_69:\n        /* \"#utility.yul\":5707:5715   */\n      0x00\n        /* \"#utility.yul\":5757:5762   */\n      dup3\n        /* \"#utility.yul\":5751:5755   */\n      dup3\n        /* \"#utility.yul\":5747:5763   */\n      shr\n        /* \"#utility.yul\":5726:5763   */\n      swap1\n      pop\n        /* \"#utility.yul\":5653:5770   */\n      swap3\n      swap2\n      pop\n      pop\n      jump\t// out\n        /* \"#utility.yul\":5776:5945   */\n    tag_70:\n        /* \"#utility.yul\":5820:5826   */\n      0x00\n        /* \"#utility.yul\":5853:5904   */\n      tag_141\n        /* \"#utility.yul\":5901:5902   */\n      0x00\n        /* \"#utility.yul\":5897:5903   */\n      not\n        /* \"#utility.yul\":5889:5894   */\n      dup5\n        /* \"#utility.yul\":5886:5887   */\n      0x08\n        /* \"#utility.yul\":5882:5895   */\n      mul\n        /* \"#utility.yul\":5853:5904   */\n      tag_69\n      jump\t// in\n    tag_141:\n        /* \"#utility.yul\":5849:5905   */\n      not\n        /* \"#utility.yul\":5934:5938   */\n      dup1\n        /* \"#utility.yul\":5928:5932   */\n      dup4\n        /* \"#utility.yul\":5924:5939   */\n      and\n        /* \"#utility.yul\":5914:5939   */\n      swap2\n      pop\n        /* \"#utility.yul\":5827:5945   */\n      pop\n        /* \"#utility.yul\":5776:5945   */\n      swap3\n      swap2\n      pop\n      pop\n      jump\t// out\n        /* \"#utility.yul\":5950:6245   */\n    tag_71:\n        /* \"#utility.yul\":6026:6030   */\n      0x00\n        /* \"#utility.yul\":6172:6201   */\n      tag_143\n        /* \"#utility.yul\":6197:6200   */\n      dup4\n        /* \"#utility.yul\":6191:6195   */\n      dup4\n        /* \"#utility.yul\":6172:6201   */\n      tag_70\n      jump\t// in\n    tag_143:\n        /* \"#utility.yul\":6164:6201   */\n      swap2\n      pop\n        /* \"#utility.yul\":6234:6237   */\n      dup3\n        /* \"#utility.yul\":6231:6232   */\n      0x02\n        /* \"#utility.yul\":6227:6238   */\n      mul\n        /* \"#utility.yul\":6221:6225   */\n      dup3\n        /* \"#utility.yul\":6218:6239   */\n      or\n        /* \"#utility.yul\":6210:6239   */\n      swap1\n      pop\n        /* \"#utility.yul\":5950:6245   */\n      swap3\n      swap2\n      pop\n      pop\n      jump\t// out\n        /* \"#utility.yul\":6250:7645   */\n    tag_32:\n        /* \"#utility.yul\":6367:6404   */\n      tag_145\n        /* \"#utility.yul\":6400:6403   */\n      dup3\n        /* \"#utility.yul\":6367:6404   */\n      tag_49\n      jump\t// in\n    tag_145:\n        /* \"#utility.yul\":6469:6487   */\n      0xffffffffffffffff\n        /* \"#utility.yul\":6461:6467   */\n      dup2\n        /* \"#utility.yul\":6458:6488   */\n      gt\n        /* \"#utility.yul\":6455:6511   */\n      iszero\n      tag_146\n      jumpi\n        /* \"#utility.yul\":6491:6509   */\n      tag_147\n      tag_56\n      jump\t// in\n    tag_147:\n        /* \"#utility.yul\":6455:6511   */\n    tag_146:\n        /* \"#utility.yul\":6535:6573   */\n      tag_148\n        /* \"#utility.yul\":6567:6571   */\n      dup3\n        /* \"#utility.yul\":6561:6572   */\n      sload\n        /* \"#utility.yul\":6535:6573   */\n      tag_24\n      jump\t// in\n    tag_148:\n        /* \"#utility.yul\":6620:6687   */\n      tag_149\n        /* \"#utility.yul\":6680:6686   */\n      dup3\n        /* \"#utility.yul\":6672:6678   */\n      dup3\n        /* \"#utility.yul\":6666:6670   */\n      dup6\n        /* \"#utility.yul\":6620:6687   */\n      tag_68\n      jump\t// in\n    tag_149:\n        /* \"#utility.yul\":6714:6715   */\n      0x00\n        /* \"#utility.yul\":6738:6742   */\n      0x20\n        /* \"#utility.yul\":6725:6742   */\n      swap1\n      pop\n        /* \"#utility.yul\":6770:6772   */\n      0x1f\n        /* \"#utility.yul\":6762:6768   */\n      dup4\n        /* \"#utility.yul\":6759:6773   */\n      gt\n        /* \"#utility.yul\":6787:6788   */\n      0x01\n        /* \"#utility.yul\":6782:7400   */\n      dup2\n      eq\n      tag_151\n      jumpi\n        /* \"#utility.yul\":7444:7445   */\n      0x00\n        /* \"#utility.yul\":7461:7467   */\n      dup5\n        /* \"#utility.yul\":7458:7535   */\n      iszero\n      tag_152\n      jumpi\n        /* \"#utility.yul\":7510:7519   */\n      dup3\n        /* \"#utility.yul\":7505:7508   */\n      dup8\n        /* \"#utility.yul\":7501:7520   */\n      add\n        /* \"#utility.yul\":7495:7521   */\n      mload\n        /* \"#utility.yul\":7486:7521   */\n      swap1\n      pop\n        /* \"#utility.yul\":7458:7535   */\n    tag_152:\n        /* \"#utility.yul\":7561:7628   */\n      tag_153\n        /* \"#utility.yul\":7621:7627   */\n      dup6\n        /* \"#utility.yul\":7614:7619   */\n      dup3\n        /* \"#utility.yul\":7561:7628   */\n      tag_71\n      jump\t// in\n    tag_153:\n        /* \"#utility.yul\":7555:7559   */\n      dup7\n        /* \"#utility.yul\":7548:7629   */\n      sstore\n        /* \"#utility.yul\":7417:7639   */\n      pop\n        /* \"#utility.yul\":6752:7639   */\n      jump(tag_150)\n        /* \"#utility.yul\":6782:7400   */\n    tag_151:\n        /* \"#utility.yul\":6834:6838   */\n      0x1f\n        /* \"#utility.yul\":6830:6839   */\n      not\n        /* \"#utility.yul\":6822:6828   */\n      dup5\n        /* \"#utility.yul\":6818:6840   */\n      and\n        /* \"#utility.yul\":6868:6905   */\n      tag_154\n        /* \"#utility.yul\":6900:6904   */\n      dup7\n        /* \"#utility.yul\":6868:6905   */\n      tag_57\n      jump\t// in\n    tag_154:\n        /* \"#utility.yul\":6927:6928   */\n      0x00\n        /* \"#utility.yul\":6941:7149   */\n    tag_155:\n        /* \"#utility.yul\":6955:6962   */\n      dup3\n        /* \"#utility.yul\":6952:6953   */\n      dup2\n        /* \"#utility.yul\":6949:6963   */\n      lt\n        /* \"#utility.yul\":6941:7149   */\n      iszero\n      tag_157\n      jumpi\n        /* \"#utility.yul\":7034:7043   */\n      dup5\n        /* \"#utility.yul\":7029:7032   */\n      dup10\n        /* \"#utility.yul\":7025:7044   */\n      add\n        /* \"#utility.yul\":7019:7045   */\n      mload\n        /* \"#utility.yul\":7011:7017   */\n      dup3\n        /* \"#utility.yul\":7004:7046   */\n      sstore\n        /* \"#utility.yul\":7085:7086   */\n      0x01\n        /* \"#utility.yul\":7077:7083   */\n      dup3\n        /* \"#utility.yul\":7073:7087   */\n      add\n        /* \"#utility.yul\":7063:7087   */\n      swap2\n      pop\n        /* \"#utility.yul\":7132:7134   */\n      0x20\n        /* \"#utility.yul\":7121:7130   */\n      dup6\n        /* \"#utility.yul\":7117:7135   */\n      add\n        /* \"#utility.yul\":7104:7135   */\n      swap5\n      pop\n        /* \"#utility.yul\":6978:6982   */\n      0x20\n        /* \"#utility.yul\":6975:6976   */\n      dup2\n        /* \"#utility.yul\":6971:6983   */\n      add\n        /* \"#utility.yul\":6966:6983   */\n      swap1\n      pop\n        /* \"#utility.yul\":6941:7149   */\n      jump(tag_155)\n    tag_157:\n        /* \"#utility.yul\":7177:7183   */\n      dup7\n        /* \"#utility.yul\":7168:7175   */\n      dup4\n        /* \"#utility.yul\":7165:7184   */\n      lt\n        /* \"#utility.yul\":7162:7341   */\n      iszero\n      tag_158\n      jumpi\n        /* \"#utility.yul\":7235:7244   */\n      dup5\n        /* \"#utility.yul\":7230:7233   */\n      dup10\n        /* \"#utility.yul\":7226:7245   */\n      add\n        /* \"#utility.yul\":7220:7246   */\n      mload\n        /* \"#utility.yul\":7278:7326   */\n      tag_159\n        /* \"#utility.yul\":7320:7324   */\n      0x1f\n        /* \"#utility.yul\":7312:7318   */\n      dup10\n        /* \"#utility.yul\":7308:7325   */\n      and\n        /* \"#utility.yul\":7297:7306   */\n      dup3\n        /* \"#utility.yul\":7278:7326   */\n      tag_70\n      jump\t// in\n    tag_159:\n        /* \"#utility.yul\":7270:7276   */\n      dup4\n        /* \"#utility.yul\":7263:7327   */\n      sstore\n        /* \"#utility.yul\":7185:7341   */\n      pop\n        /* \"#utility.yul\":7162:7341   */\n    tag_158:\n        /* \"#utility.yul\":7387:7388   */\n      0x01\n        /* \"#utility.yul\":7383:7384   */\n      0x02\n        /* \"#utility.yul\":7375:7381   */\n      dup9\n        /* \"#utility.yul\":7371:7385   */\n      mul\n        /* \"#utility.yul\":7367:7389   */\n      add\n        /* \"#utility.yul\":7361:7365   */\n      dup9\n        /* \"#utility.yul\":7354:7390   */\n      sstore\n        /* \"#utility.yul\":6789:7400   */\n      pop\n      pop\n      pop\n        /* \"#utility.yul\":6752:7639   */\n    tag_150:\n      pop\n        /* \"#utility.yul\":6342:7645   */\n      pop\n      pop\n      pop\n        /* \"#utility.yul\":6250:7645   */\n      pop\n      pop\n      jump\t// out\n\n    auxdata: 0xa26469706673582212204a586a251dc2b92eef77844af0014012efe59066f8e32911fba319c91e5cc94764736f6c634300081e0033\n}\n",
				"bytecode": {
					"linkReferences": {},
					"object": "6080604052600a5f553480156012575f5ffd5b50610725806100205f395ff3fe608060405234801561000f575f5ffd5b506004361061004a575f3560e01c80631294bdf41461004e578063653721471461006a5780638873af2414610088578063e5aa3d58146100a6575b5f5ffd5b61006860048036038101906100639190610313565b6100c4565b005b6100726100cd565b60405161007f91906103ae565b60405180910390f35b610090610159565b60405161009d91906103ae565b60405180910390f35b6100ae6102d7565b6040516100bb91906103dd565b60405180910390f35b805f8190555050565b600180546100da90610423565b80601f016020809104026020016040519081016040528092919081815260200182805461010690610423565b80156101515780601f1061012857610100808354040283529160200191610151565b820191905f5260205f20905b81548152906001019060200180831161013457829003601f168201915b505050505081565b6060600a5f5410156101af576040518060400160405280600c81526020017f6c657373207468616e2031300000000000000000000000000000000000000000815250600190816101a99190610620565b50610249565b600a5f5403610202576040518060400160405280600b81526020017f657175616c20746f203130000000000000000000000000000000000000000000815250600190816101fc9190610620565b50610248565b6040518060400160405280600f81526020017f67726561746572207468616e2031300000000000000000000000000000000000815250600190816102469190610620565b505b5b6001805461025690610423565b80601f016020809104026020016040519081016040528092919081815260200182805461028290610423565b80156102cd5780601f106102a4576101008083540402835291602001916102cd565b820191905f5260205f20905b8154815290600101906020018083116102b057829003601f168201915b5050505050905090565b5f5481565b5f5ffd5b5f819050919050565b6102f2816102e0565b81146102fc575f5ffd5b50565b5f8135905061030d816102e9565b92915050565b5f60208284031215610328576103276102dc565b5b5f610335848285016102ff565b91505092915050565b5f81519050919050565b5f82825260208201905092915050565b8281835e5f83830152505050565b5f601f19601f8301169050919050565b5f6103808261033e565b61038a8185610348565b935061039a818560208601610358565b6103a381610366565b840191505092915050565b5f6020820190508181035f8301526103c68184610376565b905092915050565b6103d7816102e0565b82525050565b5f6020820190506103f05f8301846103ce565b92915050565b7f4e487b71000000000000000000000000000000000000000000000000000000005f52602260045260245ffd5b5f600282049050600182168061043a57607f821691505b60208210810361044d5761044c6103f6565b5b50919050565b7f4e487b71000000000000000000000000000000000000000000000000000000005f52604160045260245ffd5b5f819050815f5260205f209050919050565b5f6020601f8301049050919050565b5f82821b905092915050565b5f600883026104dc7fffffffffffffffffffffffffffffffffffffffffffffffffffffffffffffffff826104a1565b6104e686836104a1565b95508019841693508086168417925050509392505050565b5f819050919050565b5f61052161051c610517846102e0565b6104fe565b6102e0565b9050919050565b5f819050919050565b61053a83610507565b61054e61054682610528565b8484546104ad565b825550505050565b5f5f905090565b610565610556565b610570818484610531565b505050565b5b81811015610593576105885f8261055d565b600181019050610576565b5050565b601f8211156105d8576105a981610480565b6105b284610492565b810160208510156105c1578190505b6105d56105cd85610492565b830182610575565b50505b505050565b5f82821c905092915050565b5f6105f85f19846008026105dd565b1980831691505092915050565b5f61061083836105e9565b9150826002028217905092915050565b6106298261033e565b67ffffffffffffffff81111561064257610641610453565b5b61064c8254610423565b610657828285610597565b5f60209050601f831160018114610688575f8415610676578287015190505b6106808582610605565b8655506106e7565b601f19841661069686610480565b5f5b828110156106bd57848901518255600182019150602085019450602081019050610698565b868310156106da57848901516106d6601f8916826105e9565b8355505b6001600288020188555050505b50505050505056fea26469706673582212204a586a251dc2b92eef77844af0014012efe59066f8e32911fba319c91e5cc94764736f6c634300081e0033",
					"opcodes": "PUSH1 0x80 PUSH1 0x40 MSTORE PUSH1 0xA PUSH0 SSTORE CALLVALUE DUP1 ISZERO PUSH1 0x12 JUMPI PUSH0 PUSH0 REVERT JUMPDEST POP PUSH2 0x725 DUP1 PUSH2 0x20 PUSH0 CODECOPY PUSH0 RETURN INVALID PUSH1 0x80 PUSH1 0x40 MSTORE CALLVALUE DUP1 ISZERO PUSH2 0xF JUMPI PUSH0 PUSH0 REVERT JUMPDEST POP PUSH1 0x4 CALLDATASIZE LT PUSH2 0x4A JUMPI PUSH0 CALLDATALOAD PUSH1 0xE0 SHR DUP1 PUSH4 0x1294BDF4 EQ PUSH2 0x4E JUMPI DUP1 PUSH4 0x65372147 EQ PUSH2 0x6A JUMPI DUP1 PUSH4 0x8873AF24 EQ PUSH2 0x88 JUMPI DUP1 PUSH4 0xE5AA3D58 EQ PUSH2 0xA6 JUMPI JUMPDEST PUSH0 PUSH0 REVERT JUMPDEST PUSH2 0x68 PUSH1 0x4 DUP1 CALLDATASIZE SUB DUP2 ADD SWAP1 PUSH2 0x63 SWAP2 SWAP1 PUSH2 0x313 JUMP JUMPDEST PUSH2 0xC4 JUMP JUMPDEST STOP JUMPDEST PUSH2 0x72 PUSH2 0xCD JUMP JUMPDEST PUSH1 0x40 MLOAD PUSH2 0x7F SWAP2 SWAP1 PUSH2 0x3AE JUMP JUMPDEST PUSH1 0x40 MLOAD DUP1 SWAP2 SUB SWAP1 RETURN JUMPDEST PUSH2 0x90 PUSH2 0x159 JUMP JUMPDEST PUSH1 0x40 MLOAD PUSH2 0x9D SWAP2 SWAP1 PUSH2 0x3AE JUMP JUMPDEST PUSH1 0x40 MLOAD DUP1 SWAP2 SUB SWAP1 RETURN JUMPDEST PUSH2 0xAE PUSH2 0x2D7 JUMP JUMPDEST PUSH1 0x40 MLOAD PUSH2 0xBB SWAP2 SWAP1 PUSH2 0x3DD JUMP JUMPDEST PUSH1 0x40 MLOAD DUP1 SWAP2 SUB SWAP1 RETURN JUMPDEST DUP1 PUSH0 DUP2 SWAP1 SSTORE POP POP JUMP JUMPDEST PUSH1 0x1 DUP1 SLOAD PUSH2 0xDA SWAP1 PUSH2 0x423 JUMP JUMPDEST DUP1 PUSH1 0x1F ADD PUSH1 0x20 DUP1 SWAP2 DIV MUL PUSH1 0x20 ADD PUSH1 0x40 MLOAD SWAP1 DUP2 ADD PUSH1 0x40 MSTORE DUP1 SWAP3 SWAP2 SWAP1 DUP2 DUP2 MSTORE PUSH1 0x20 ADD DUP3 DUP1 SLOAD PUSH2 0x106 SWAP1 PUSH2 0x423 JUMP JUMPDEST DUP1 ISZERO PUSH2 0x151 JUMPI DUP1 PUSH1 0x1F LT PUSH2 0x128 JUMPI PUSH2 0x100 DUP1 DUP4 SLOAD DIV MUL DUP4 MSTORE SWAP2 PUSH1 0x20 ADD SWAP2 PUSH2 0x151 JUMP JUMPDEST DUP3 ADD SWAP2 SWAP1 PUSH0 MSTORE PUSH1 0x20 PUSH0 KECCAK256 SWAP1 JUMPDEST DUP2 SLOAD DUP2 MSTORE SWAP1 PUSH1 0x1 ADD SWAP1 PUSH1 0x20 ADD DUP1 DUP4 GT PUSH2 0x134 JUMPI DUP3 SWAP1 SUB PUSH1 0x1F AND DUP3 ADD SWAP2 JUMPDEST POP POP POP POP POP DUP2 JUMP JUMPDEST PUSH1 0x60 PUSH1 0xA PUSH0 SLOAD LT ISZERO PUSH2 0x1AF JUMPI PUSH1 0x40 MLOAD DUP1 PUSH1 0x40 ADD PUSH1 0x40 MSTORE DUP1 PUSH1 0xC DUP2 MSTORE PUSH1 0x20 ADD PUSH32 0x6C657373207468616E2031300000000000000000000000000000000000000000 DUP2 MSTORE POP PUSH1 0x1 SWAP1 DUP2 PUSH2 0x1A9 SWAP2 SWAP1 PUSH2 0x620 JUMP JUMPDEST POP PUSH2 0x249 JUMP JUMPDEST PUSH1 0xA PUSH0 SLOAD SUB PUSH2 0x202 JUMPI PUSH1 0x40 MLOAD DUP1 PUSH1 0x40 ADD PUSH1 0x40 MSTORE DUP1 PUSH1 0xB DUP2 MSTORE PUSH1 0x20 ADD PUSH32 0x657175616C20746F203130000000000000000000000000000000000000000000 DUP2 MSTORE POP PUSH1 0x1 SWAP1 DUP2 PUSH2 0x1FC SWAP2 SWAP1 PUSH2 0x620 JUMP JUMPDEST POP PUSH2 0x248 JUMP JUMPDEST PUSH1 0x40 MLOAD DUP1 PUSH1 0x40 ADD PUSH1 0x40 MSTORE DUP1 PUSH1 0xF DUP2 MSTORE PUSH1 0x20 ADD PUSH32 0x67726561746572207468616E2031300000000000000000000000000000000000 DUP2 MSTORE POP PUSH1 0x1 SWAP1 DUP2 PUSH2 0x246 SWAP2 SWAP1 PUSH2 0x620 JUMP JUMPDEST POP JUMPDEST JUMPDEST PUSH1 0x1 DUP1 SLOAD PUSH2 0x256 SWAP1 PUSH2 0x423 JUMP JUMPDEST DUP1 PUSH1 0x1F ADD PUSH1 0x20 DUP1 SWAP2 DIV MUL PUSH1 0x20 ADD PUSH1 0x40 MLOAD SWAP1 DUP2 ADD PUSH1 0x40 MSTORE DUP1 SWAP3 SWAP2 SWAP1 DUP2 DUP2 MSTORE PUSH1 0x20 ADD DUP3 DUP1 SLOAD PUSH2 0x282 SWAP1 PUSH2 0x423 JUMP JUMPDEST DUP1 ISZERO PUSH2 0x2CD JUMPI DUP1 PUSH1 0x1F LT PUSH2 0x2A4 JUMPI PUSH2 0x100 DUP1 DUP4 SLOAD DIV MUL DUP4 MSTORE SWAP2 PUSH1 0x20 ADD SWAP2 PUSH2 0x2CD JUMP JUMPDEST DUP3 ADD SWAP2 SWAP1 PUSH0 MSTORE PUSH1 0x20 PUSH0 KECCAK256 SWAP1 JUMPDEST DUP2 SLOAD DUP2 MSTORE SWAP1 PUSH1 0x1 ADD SWAP1 PUSH1 0x20 ADD DUP1 DUP4 GT PUSH2 0x2B0 JUMPI DUP3 SWAP1 SUB PUSH1 0x1F AND DUP3 ADD SWAP2 JUMPDEST POP POP POP POP POP SWAP1 POP SWAP1 JUMP JUMPDEST PUSH0 SLOAD DUP2 JUMP JUMPDEST PUSH0 PUSH0 REVERT JUMPDEST PUSH0 DUP2 SWAP1 POP SWAP2 SWAP1 POP JUMP JUMPDEST PUSH2 0x2F2 DUP2 PUSH2 0x2E0 JUMP JUMPDEST DUP2 EQ PUSH2 0x2FC JUMPI PUSH0 PUSH0 REVERT JUMPDEST POP JUMP JUMPDEST PUSH0 DUP2 CALLDATALOAD SWAP1 POP PUSH2 0x30D DUP2 PUSH2 0x2E9 JUMP JUMPDEST SWAP3 SWAP2 POP POP JUMP JUMPDEST PUSH0 PUSH1 0x20 DUP3 DUP5 SUB SLT ISZERO PUSH2 0x328 JUMPI PUSH2 0x327 PUSH2 0x2DC JUMP JUMPDEST JUMPDEST PUSH0 PUSH2 0x335 DUP5 DUP3 DUP6 ADD PUSH2 0x2FF JUMP JUMPDEST SWAP2 POP POP SWAP3 SWAP2 POP POP JUMP JUMPDEST PUSH0 DUP2 MLOAD SWAP1 POP SWAP2 SWAP1 POP JUMP JUMPDEST PUSH0 DUP3 DUP3 MSTORE PUSH1 0x20 DUP3 ADD SWAP1 POP SWAP3 SWAP2 POP POP JUMP JUMPDEST DUP3 DUP2 DUP4 MCOPY PUSH0 DUP4 DUP4 ADD MSTORE POP POP POP JUMP JUMPDEST PUSH0 PUSH1 0x1F NOT PUSH1 0x1F DUP4 ADD AND SWAP1 POP SWAP2 SWAP1 POP JUMP JUMPDEST PUSH0 PUSH2 0x380 DUP3 PUSH2 0x33E JUMP JUMPDEST PUSH2 0x38A DUP2 DUP6 PUSH2 0x348 JUMP JUMPDEST SWAP4 POP PUSH2 0x39A DUP2 DUP6 PUSH1 0x20 DUP7 ADD PUSH2 0x358 JUMP JUMPDEST PUSH2 0x3A3 DUP2 PUSH2 0x366 JUMP JUMPDEST DUP5 ADD SWAP2 POP POP SWAP3 SWAP2 POP POP JUMP JUMPDEST PUSH0 PUSH1 0x20 DUP3 ADD SWAP1 POP DUP2 DUP2 SUB PUSH0 DUP4 ADD MSTORE PUSH2 0x3C6 DUP2 DUP5 PUSH2 0x376 JUMP JUMPDEST SWAP1 POP SWAP3 SWAP2 POP POP JUMP JUMPDEST PUSH2 0x3D7 DUP2 PUSH2 0x2E0 JUMP JUMPDEST DUP3 MSTORE POP POP JUMP JUMPDEST PUSH0 PUSH1 0x20 DUP3 ADD SWAP1 POP PUSH2 0x3F0 PUSH0 DUP4 ADD DUP5 PUSH2 0x3CE JUMP JUMPDEST SWAP3 SWAP2 POP POP JUMP JUMPDEST PUSH32 0x4E487B7100000000000000000000000000000000000000000000000000000000 PUSH0 MSTORE PUSH1 0x22 PUSH1 0x4 MSTORE PUSH1 0x24 PUSH0 REVERT JUMPDEST PUSH0 PUSH1 0x2 DUP3 DIV SWAP1 POP PUSH1 0x1 DUP3 AND DUP1 PUSH2 0x43A JUMPI PUSH1 0x7F DUP3 AND SWAP2 POP JUMPDEST PUSH1 0x20 DUP3 LT DUP2 SUB PUSH2 0x44D JUMPI PUSH2 0x44C PUSH2 0x3F6 JUMP JUMPDEST JUMPDEST POP SWAP2 SWAP1 POP JUMP JUMPDEST PUSH32 0x4E487B7100000000000000000000000000000000000000000000000000000000 PUSH0 MSTORE PUSH1 0x41 PUSH1 0x4 MSTORE PUSH1 0x24 PUSH0 REVERT JUMPDEST PUSH0 DUP2 SWAP1 POP DUP2 PUSH0 MSTORE PUSH1 0x20 PUSH0 KECCAK256 SWAP1 POP SWAP2 SWAP1 POP JUMP JUMPDEST PUSH0 PUSH1 0x20 PUSH1 0x1F DUP4 ADD DIV SWAP1 POP SWAP2 SWAP1 POP JUMP JUMPDEST PUSH0 DUP3 DUP3 SHL SWAP1 POP SWAP3 SWAP2 POP POP JUMP JUMPDEST PUSH0 PUSH1 0x8 DUP4 MUL PUSH2 0x4DC PUSH32 0xFFFFFFFFFFFFFFFFFFFFFFFFFFFFFFFFFFFFFFFFFFFFFFFFFFFFFFFFFFFFFFFF DUP3 PUSH2 0x4A1 JUMP JUMPDEST PUSH2 0x4E6 DUP7 DUP4 PUSH2 0x4A1 JUMP JUMPDEST SWAP6 POP DUP1 NOT DUP5 AND SWAP4 POP DUP1 DUP7 AND DUP5 OR SWAP3 POP POP POP SWAP4 SWAP3 POP POP POP JUMP JUMPDEST PUSH0 DUP2 SWAP1 POP SWAP2 SWAP1 POP JUMP JUMPDEST PUSH0 PUSH2 0x521 PUSH2 0x51C PUSH2 0x517 DUP5 PUSH2 0x2E0 JUMP JUMPDEST PUSH2 0x4FE JUMP JUMPDEST PUSH2 0x2E0 JUMP JUMPDEST SWAP1 POP SWAP2 SWAP1 POP JUMP JUMPDEST PUSH0 DUP2 SWAP1 POP SWAP2 SWAP1 POP JUMP JUMPDEST PUSH2 0x53A DUP4 PUSH2 0x507 JUMP JUMPDEST PUSH2 0x54E PUSH2 0x546 DUP3 PUSH2 0x528 JUMP JUMPDEST DUP5 DUP5 SLOAD PUSH2 0x4AD JUMP JUMPDEST DUP3 SSTORE POP POP POP POP JUMP JUMPDEST PUSH0 PUSH0 SWAP1 POP SWAP1 JUMP JUMPDEST PUSH2 0x565 PUSH2 0x556 JUMP JUMPDEST PUSH2 0x570 DUP2 DUP5 DUP5 PUSH2 0x531 JUMP JUMPDEST POP POP POP JUMP JUMPDEST JUMPDEST DUP2 DUP2 LT ISZERO PUSH2 0x593 JUMPI PUSH2 0x588 PUSH0 DUP3 PUSH2 0x55D JUMP JUMPDEST PUSH1 0x1 DUP2 ADD SWAP1 POP PUSH2 0x576 JUMP JUMPDEST POP POP JUMP JUMPDEST PUSH1 0x1F DUP3 GT ISZERO PUSH2 0x5D8 JUMPI PUSH2 0x5A9 DUP2 PUSH2 0x480 JUMP JUMPDEST PUSH2 0x5B2 DUP5 PUSH2 0x492 JUMP JUMPDEST DUP2 ADD PUSH1 0x20 DUP6 LT ISZERO PUSH2 0x5C1 JUMPI DUP2 SWAP1 POP JUMPDEST PUSH2 0x5D5 PUSH2 0x5CD DUP6 PUSH2 0x492 JUMP JUMPDEST DUP4 ADD DUP3 PUSH2 0x575 JUMP JUMPDEST POP POP JUMPDEST POP POP POP JUMP JUMPDEST PUSH0 DUP3 DUP3 SHR SWAP1 POP SWAP3 SWAP2 POP POP JUMP JUMPDEST PUSH0 PUSH2 0x5F8 PUSH0 NOT DUP5 PUSH1 0x8 MUL PUSH2 0x5DD JUMP JUMPDEST NOT DUP1 DUP4 AND SWAP2 POP POP SWAP3 SWAP2 POP POP JUMP JUMPDEST PUSH0 PUSH2 0x610 DUP4 DUP4 PUSH2 0x5E9 JUMP JUMPDEST SWAP2 POP DUP3 PUSH1 0x2 MUL DUP3 OR SWAP1 POP SWAP3 SWAP2 POP POP JUMP JUMPDEST PUSH2 0x629 DUP3 PUSH2 0x33E JUMP JUMPDEST PUSH8 0xFFFFFFFFFFFFFFFF DUP2 GT ISZERO PUSH2 0x642 JUMPI PUSH2 0x641 PUSH2 0x453 JUMP JUMPDEST JUMPDEST PUSH2 0x64C DUP3 SLOAD PUSH2 0x423 JUMP JUMPDEST PUSH2 0x657 DUP3 DUP3 DUP6 PUSH2 0x597 JUMP JUMPDEST PUSH0 PUSH1 0x20 SWAP1 POP PUSH1 0x1F DUP4 GT PUSH1 0x1 DUP2 EQ PUSH2 0x688 JUMPI PUSH0 DUP5 ISZERO PUSH2 0x676 JUMPI DUP3 DUP8 ADD MLOAD SWAP1 POP JUMPDEST PUSH2 0x680 DUP6 DUP3 PUSH2 0x605 JUMP JUMPDEST DUP7 SSTORE POP PUSH2 0x6E7 JUMP JUMPDEST PUSH1 0x1F NOT DUP5 AND PUSH2 0x696 DUP7 PUSH2 0x480 JUMP JUMPDEST PUSH0 JUMPDEST DUP3 DUP2 LT ISZERO PUSH2 0x6BD JUMPI DUP5 DUP10 ADD MLOAD DUP3 SSTORE PUSH1 0x1 DUP3 ADD SWAP2 POP PUSH1 0x20 DUP6 ADD SWAP5 POP PUSH1 0x20 DUP2 ADD SWAP1 POP PUSH2 0x698 JUMP JUMPDEST DUP7 DUP4 LT ISZERO PUSH2 0x6DA JUMPI DUP5 DUP10 ADD MLOAD PUSH2 0x6D6 PUSH1 0x1F DUP10 AND DUP3 PUSH2 0x5E9 JUMP JUMPDEST DUP4 SSTORE POP JUMPDEST PUSH1 0x1 PUSH1 0x2 DUP9 MUL ADD DUP9 SSTORE POP POP POP JUMPDEST POP POP POP POP POP POP JUMP INVALID LOG2 PUSH5 0x6970667358 0x22 SLT KECCAK256 BLOBBASEFEE PC PUSH11 0x251DC2B92EEF77844AF001 BLOCKHASH SLT 0xEF JUMPF 0x9066 EXTCALL CALLF 0x2911 EXTSTATICCALL LOG3 NOT 0xC9 0x1E TLOAD 0xC9 SELFBALANCE PUSH5 0x736F6C6343 STOP ADDMOD 0x1E STOP CALLER "
				},
				"gasEstimates": {
					"creation": {
						"codeDepositCost": "365800",
						"executionCost": "22508",
						"totalCost": "388308"
					},
					"external": {
						"decision_making()": "infinite",
						"i()": "2468",
						"result()": "infinite",
						"setI(uint256)": "22492"
					}
				},
				"methodIdentifiers": {
					"decision_making()": "8873af24",
					"i()": "e5aa3d58",
					"result()": "65372147",
					"setI(uint256)": "1294bdf4"
				}
			},
			"storageLayout": {
				"storage": [
					{
						"astId": 4,
						"contract": "contracts/contracts/ifelse1.sol:Types",
						"label": "i",
						"offset": 0,
						"slot": "0",
						"type": "t_uint256"
					},
					{
						"astId": 6,
						"contract": "contracts/contracts/ifelse1.sol:Types",
						"label": "result",
						"offset": 0,
						"slot": "1",
						"type": "t_string_storage"
					}
				],
				"types": {
					"t_string_storage": {
						"encoding": "bytes",
						"label": "string",
						"numberOfBytes": "32"
					},
					"t_uint256": {
						"encoding": "inplace",
						"label": "uint256",
						"numberOfBytes": "32"
					}
				}
			},
			"userdoc": {
				"kind": "user",
				"methods": {},
				"version": 1
			}
		}
	}
}