{
	"data": {
		"bytecode": {
			"linkReferences": {},
			"object": "6080604052602a5f557ffffffffffffffffffffffffffffffffffffffffffffffffffffffffffffffff66001556040518060400160405280601281526020017f48656c6c6f2c20426c6f636b636861696e210000000000000000000000000000815250600290816100709190610352565b50735b38da6a701c568545dcfcb03fcb875f56beddc460035f6101000a81548173ffffffffffffffffffffffffffffffffffffffff021916908373ffffffffffffffffffffffffffffffffffffffff1602179055506001600360146101000a81548160ff0219169083151502179055507f616263313233000000000000000000000000000000000000000000000000000060045534801561010f575f5ffd5b50610421565b5f81519050919050565b7f4e487b71000000000000000000000000000000000000000000000000000000005f52604160045260245ffd5b7f4e487b71000000000000000000000000000000000000000000000000000000005f52602260045260245ffd5b5f600282049050600182168061019057607f821691505b6020821081036101a3576101a261014c565b5b50919050565b5f819050815f5260205f209050919050565b5f6020601f8301049050919050565b5f82821b905092915050565b5f600883026102057fffffffffffffffffffffffffffffffffffffffffffffffffffffffffffffffff826101ca565b61020f86836101ca565b95508019841693508086168417925050509392505050565b5f819050919050565b5f819050919050565b5f61025361024e61024984610227565b610230565b610227565b9050919050565b5f819050919050565b61026c83610239565b6102806102788261025a565b8484546101d6565b825550505050565b5f5f905090565b610297610288565b6102a2818484610263565b505050565b5b818110156102c5576102ba5f8261028f565b6001810190506102a8565b5050565b601f82111561030a576102db816101a9565b6102e4846101bb565b810160208510156102f3578190505b6103076102ff856101bb565b8301826102a7565b50505b505050565b5f82821c905092915050565b5f61032a5f198460080261030f565b1980831691505092915050565b5f610342838361031b565b9150826002028217905092915050565b61035b82610115565b67ffffffffffffffff8111156103745761037361011f565b5b61037e8254610179565b6103898282856102c9565b5f60209050601f8311600181146103ba575f84156103a8578287015190505b6103b28582610337565b865550610419565b601f1984166103c8866101a9565b5f5b828110156103ef578489015182556001820191506020850194506020810190506103ca565b8683101561040c5784890151610408601f89168261031b565b8355505b6001600288020188555050505b505050505050565b6108f38061042e5f395ff3fe608060405234801561000f575f5ffd5b506004361061007b575f3560e01c80635b3d4bde116100595780635b3d4bde146100d95780638da5cb5b146100f5578063adccea1214610113578063ef690cc0146101315761007b565b806306661abd1461007f57806309bd5a601461009d57806322f3e2d4146100bb575b5f5ffd5b61008761014f565b604051610094919061025e565b60405180910390f35b6100a5610154565b6040516100b2919061028f565b60405180910390f35b6100c361015a565b6040516100d091906102c2565b60405180910390f35b6100f360048036038101906100ee9190610485565b61016d565b005b6100fd61018f565b60405161010a9190610530565b60405180910390f35b61011b6101b4565b6040516101289190610558565b60405180910390f35b6101396101ba565b60405161014691906105d1565b60405180910390f35b5f5481565b60045481565b600360149054906101000a900460ff1681565b825f8190555081600181905550806002908161018991906107ee565b50505050565b60035f9054906101000a900473ffffffffffffffffffffffffffffffffffffffff1681565b60015481565b600280546101c79061061e565b80601f01602080910402602001604051908101604052809291908181526020018280546101f39061061e565b801561023e5780601f106102155761010080835404028352916020019161023e565b820191905f5260205f20905b81548152906001019060200180831161022157829003601f168201915b505050505081565b5f819050919050565b61025881610246565b82525050565b5f6020820190506102715f83018461024f565b92915050565b5f819050919050565b61028981610277565b82525050565b5f6020820190506102a25f830184610280565b92915050565b5f8115159050919050565b6102bc816102a8565b82525050565b5f6020820190506102d55f8301846102b3565b92915050565b5f604051905090565b5f5ffd5b5f5ffd5b6102f581610246565b81146102ff575f5ffd5b50565b5f81359050610310816102ec565b92915050565b5f819050919050565b61032881610316565b8114610332575f5ffd5b50565b5f813590506103438161031f565b92915050565b5f5ffd5b5f5ffd5b5f601f19601f8301169050919050565b7f4e487b71000000000000000000000000000000000000000000000000000000005f52604160045260245ffd5b61039782610351565b810181811067ffffffffffffffff821117156103b6576103b5610361565b5b80604052505050565b5f6103c86102db565b90506103d4828261038e565b919050565b5f67ffffffffffffffff8211156103f3576103f2610361565b5b6103fc82610351565b9050602081019050919050565b828183375f83830152505050565b5f610429610424846103d9565b6103bf565b9050828152602081018484840111156104455761044461034d565b5b610450848285610409565b509392505050565b5f82601f83011261046c5761046b610349565b5b813561047c848260208601610417565b91505092915050565b5f5f5f6060848603121561049c5761049b6102e4565b5b5f6104a986828701610302565b93505060206104ba86828701610335565b925050604084013567ffffffffffffffff8111156104db576104da6102e8565b5b6104e786828701610458565b9150509250925092565b5f73ffffffffffffffffffffffffffffffffffffffff82169050919050565b5f61051a826104f1565b9050919050565b61052a81610510565b82525050565b5f6020820190506105435f830184610521565b92915050565b61055281610316565b82525050565b5f60208201905061056b5f830184610549565b92915050565b5f81519050919050565b5f82825260208201905092915050565b8281835e5f83830152505050565b5f6105a382610571565b6105ad818561057b565b93506105bd81856020860161058b565b6105c681610351565b840191505092915050565b5f6020820190508181035f8301526105e98184610599565b905092915050565b7f4e487b71000000000000000000000000000000000000000000000000000000005f52602260045260245ffd5b5f600282049050600182168061063557607f821691505b602082108103610648576106476105f1565b5b50919050565b5f819050815f5260205f209050919050565b5f6020601f8301049050919050565b5f82821b905092915050565b5f600883026106aa7fffffffffffffffffffffffffffffffffffffffffffffffffffffffffffffffff8261066f565b6106b4868361066f565b95508019841693508086168417925050509392505050565b5f819050919050565b5f6106ef6106ea6106e584610246565b6106cc565b610246565b9050919050565b5f819050919050565b610708836106d5565b61071c610714826106f6565b84845461067b565b825550505050565b5f5f905090565b610733610724565b61073e8184846106ff565b505050565b5b81811015610761576107565f8261072b565b600181019050610744565b5050565b601f8211156107a6576107778161064e565b61078084610660565b8101602085101561078f578190505b6107a361079b85610660565b830182610743565b50505b505050565b5f82821c905092915050565b5f6107c65f19846008026107ab565b1980831691505092915050565b5f6107de83836107b7565b9150826002028217905092915050565b6107f782610571565b67ffffffffffffffff8111156108105761080f610361565b5b61081a825461061e565b610825828285610765565b5f60209050601f831160018114610856575f8415610844578287015190505b61084e85826107d3565b8655506108b5565b601f1984166108648661064e565b5f5b8281101561088b57848901518255600182019150602085019450602081019050610866565b868310156108a857848901516108a4601f8916826107b7565b8355505b6001600288020188555050505b50505050505056fea2646970667358221220e43052cb85436339e82d97dc079b717abc7791c9af231192299e60b5251258f264736f6c634300081e0033",
			"opcodes": "PUSH1 0x80 PUSH1 0x40 MSTORE PUSH1 0x2A PUSH0 SSTORE PUSH32 0xFFFFFFFFFFFFFFFFFFFFFFFFFFFFFFFFFFFFFFFFFFFFFFFFFFFFFFFFFFFFFFF6 PUSH1 0x1 SSTORE PUSH1 0x40 MLOAD DUP1 PUSH1 0x40 ADD PUSH1 0x40 MSTORE DUP1 PUSH1 0x12 DUP2 MSTORE PUSH1 0x20 ADD PUSH32 0x48656C6C6F2C20426C6F636B636861696E210000000000000000000000000000 DUP2 MSTORE POP PUSH1 0x2 SWAP1 DUP2 PUSH2 0x70 SWAP2 SWAP1 PUSH2 0x352 JUMP JUMPDEST POP PUSH20 0x5B38DA6A701C568545DCFCB03FCB875F56BEDDC4 PUSH1 0x3 PUSH0 PUSH2 0x100 EXP DUP2 SLOAD DUP2 PUSH20 0xFFFFFFFFFFFFFFFFFFFFFFFFFFFFFFFFFFFFFFFF MUL NOT AND SWAP1 DUP4 PUSH20 0xFFFFFFFFFFFFFFFFFFFFFFFFFFFFFFFFFFFFFFFF AND MUL OR SWAP1 SSTORE POP PUSH1 0x1 PUSH1 0x3 PUSH1 0x14 PUSH2 0x100 EXP DUP2 SLOAD DUP2 PUSH1 0xFF MUL NOT AND SWAP1 DUP4 ISZERO ISZERO MUL OR SWAP1 SSTORE POP PUSH32 0x6162633132330000000000000000000000000000000000000000000000000000 PUSH1 0x4 SSTORE CALLVALUE DUP1 ISZERO PUSH2 0x10F JUMPI PUSH0 PUSH0 REVERT JUMPDEST POP PUSH2 0x421 JUMP JUMPDEST PUSH0 DUP2 MLOAD SWAP1 POP SWAP2 SWAP1 POP JUMP JUMPDEST PUSH32 0x4E487B7100000000000000000000000000000000000000000000000000000000 PUSH0 MSTORE PUSH1 0x41 PUSH1 0x4 MSTORE PUSH1 0x24 PUSH0 REVERT JUMPDEST PUSH32 0x4E487B7100000000000000000000000000000000000000000000000000000000 PUSH0 MSTORE PUSH1 0x22 PUSH1 0x4 MSTORE PUSH1 0x24 PUSH0 REVERT JUMPDEST PUSH0 PUSH1 0x2 DUP3 DIV SWAP1 POP PUSH1 0x1 DUP3 AND DUP1 PUSH2 0x190 JUMPI PUSH1 0x7F DUP3 AND SWAP2 POP JUMPDEST PUSH1 0x20 DUP3 LT DUP2 SUB PUSH2 0x1A3 JUMPI PUSH2 0x1A2 PUSH2 0x14C JUMP JUMPDEST JUMPDEST POP SWAP2 SWAP1 POP JUMP JUMPDEST PUSH0 DUP2 SWAP1 POP DUP2 PUSH0 MSTORE PUSH1 0x20 PUSH0 KECCAK256 SWAP1 POP SWAP2 SWAP1 POP JUMP JUMPDEST PUSH0 PUSH1 0x20 PUSH1 0x1F DUP4 ADD DIV SWAP1 POP SWAP2 SWAP1 POP JUMP JUMPDEST PUSH0 DUP3 DUP3 SHL SWAP1 POP SWAP3 SWAP2 POP POP JUMP JUMPDEST PUSH0 PUSH1 0x8 DUP4 MUL PUSH2 0x205 PUSH32 0xFFFFFFFFFFFFFFFFFFFFFFFFFFFFFFFFFFFFFFFFFFFFFFFFFFFFFFFFFFFFFFFF DUP3 PUSH2 0x1CA JUMP JUMPDEST PUSH2 0x20F DUP7 DUP4 PUSH2 0x1CA JUMP JUMPDEST SWAP6 POP DUP1 NOT DUP5 AND SWAP4 POP DUP1 DUP7 AND DUP5 OR SWAP3 POP POP POP SWAP4 SWAP3 POP POP POP JUMP JUMPDEST PUSH0 DUP2 SWAP1 POP SWAP2 SWAP1 POP JUMP JUMPDEST PUSH0 DUP2 SWAP1 POP SWAP2 SWAP1 POP JUMP JUMPDEST PUSH0 PUSH2 0x253 PUSH2 0x24E PUSH2 0x249 DUP5 PUSH2 0x227 JUMP JUMPDEST PUSH2 0x230 JUMP JUMPDEST PUSH2 0x227 JUMP JUMPDEST SWAP1 POP SWAP2 SWAP1 POP JUMP JUMPDEST PUSH0 DUP2 SWAP1 POP SWAP2 SWAP1 POP JUMP JUMPDEST PUSH2 0x26C DUP4 PUSH2 0x239 JUMP JUMPDEST PUSH2 0x280 PUSH2 0x278 DUP3 PUSH2 0x25A JUMP JUMPDEST DUP5 DUP5 SLOAD PUSH2 0x1D6 JUMP JUMPDEST DUP3 SSTORE POP POP POP POP JUMP JUMPDEST PUSH0 PUSH0 SWAP1 POP SWAP1 JUMP JUMPDEST PUSH2 0x297 PUSH2 0x288 JUMP JUMPDEST PUSH2 0x2A2 DUP2 DUP5 DUP5 PUSH2 0x263 JUMP JUMPDEST POP POP POP JUMP JUMPDEST JUMPDEST DUP2 DUP2 LT ISZERO PUSH2 0x2C5 JUMPI PUSH2 0x2BA PUSH0 DUP3 PUSH2 0x28F JUMP JUMPDEST PUSH1 0x1 DUP2 ADD SWAP1 POP PUSH2 0x2A8 JUMP JUMPDEST POP POP JUMP JUMPDEST PUSH1 0x1F DUP3 GT ISZERO PUSH2 0x30A JUMPI PUSH2 0x2DB DUP2 PUSH2 0x1A9 JUMP JUMPDEST PUSH2 0x2E4 DUP5 PUSH2 0x1BB JUMP JUMPDEST DUP2 ADD PUSH1 0x20 DUP6 LT ISZERO PUSH2 0x2F3 JUMPI DUP2 SWAP1 POP JUMPDEST PUSH2 0x307 PUSH2 0x2FF DUP6 PUSH2 0x1BB JUMP JUMPDEST DUP4 ADD DUP3 PUSH2 0x2A7 JUMP JUMPDEST POP POP JUMPDEST POP POP POP JUMP JUMPDEST PUSH0 DUP3 DUP3 SHR SWAP1 POP SWAP3 SWAP2 POP POP JUMP JUMPDEST PUSH0 PUSH2 0x32A PUSH0 NOT DUP5 PUSH1 0x8 MUL PUSH2 0x30F JUMP JUMPDEST NOT DUP1 DUP4 AND SWAP2 POP POP SWAP3 SWAP2 POP POP JUMP JUMPDEST PUSH0 PUSH2 0x342 DUP4 DUP4 PUSH2 0x31B JUMP JUMPDEST SWAP2 POP DUP3 PUSH1 0x2 MUL DUP3 OR SWAP1 POP SWAP3 SWAP2 POP POP JUMP JUMPDEST PUSH2 0x35B DUP3 PUSH2 0x115 JUMP JUMPDEST PUSH8 0xFFFFFFFFFFFFFFFF DUP2 GT ISZERO PUSH2 0x374 JUMPI PUSH2 0x373 PUSH2 0x11F JUMP JUMPDEST JUMPDEST PUSH2 0x37E DUP3 SLOAD PUSH2 0x179 JUMP JUMPDEST PUSH2 0x389 DUP3 DUP3 DUP6 PUSH2 0x2C9 JUMP JUMPDEST PUSH0 PUSH1 0x20 SWAP1 POP PUSH1 0x1F DUP4 GT PUSH1 0x1 DUP2 EQ PUSH2 0x3BA JUMPI PUSH0 DUP5 ISZERO PUSH2 0x3A8 JUMPI DUP3 DUP8 ADD MLOAD SWAP1 POP JUMPDEST PUSH2 0x3B2 DUP6 DUP3 PUSH2 0x337 JUMP JUMPDEST DUP7 SSTORE POP PUSH2 0x419 JUMP JUMPDEST PUSH1 0x1F NOT DUP5 AND PUSH2 0x3C8 DUP7 PUSH2 0x1A9 JUMP JUMPDEST PUSH0 JUMPDEST DUP3 DUP2 LT ISZERO PUSH2 0x3EF JUMPI DUP5 DUP10 ADD MLOAD DUP3 SSTORE PUSH1 0x1 DUP3 ADD SWAP2 POP PUSH1 0x20 DUP6 ADD SWAP5 POP PUSH1 0x20 DUP2 ADD SWAP1 POP PUSH2 0x3CA JUMP JUMPDEST DUP7 DUP4 LT ISZERO PUSH2 0x40C JUMPI DUP5 DUP10 ADD MLOAD PUSH2 0x408 PUSH1 0x1F DUP10 AND DUP3 PUSH2 0x31B JUMP JUMPDEST DUP4 SSTORE POP JUMPDEST PUSH1 0x1 PUSH1 0x2 DUP9 MUL ADD DUP9 SSTORE POP POP POP JUMPDEST POP POP POP POP POP POP JUMP JUMPDEST PUSH2 0x8F3 DUP1 PUSH2 0x42E PUSH0 CODECOPY PUSH0 RETURN INVALID PUSH1 0x80 PUSH1 0x40 MSTORE CALLVALUE DUP1 ISZERO PUSH2 0xF JUMPI PUSH0 PUSH0 REVERT JUMPDEST POP PUSH1 0x4 CALLDATASIZE LT PUSH2 0x7B JUMPI PUSH0 CALLDATALOAD PUSH1 0xE0 SHR DUP1 PUSH4 0x5B3D4BDE GT PUSH2 0x59 JUMPI DUP1 PUSH4 0x5B3D4BDE EQ PUSH2 0xD9 JUMPI DUP1 PUSH4 0x8DA5CB5B EQ PUSH2 0xF5 JUMPI DUP1 PUSH4 0xADCCEA12 EQ PUSH2 0x113 JUMPI DUP1 PUSH4 0xEF690CC0 EQ PUSH2 0x131 JUMPI PUSH2 0x7B JUMP JUMPDEST DUP1 PUSH4 0x6661ABD EQ PUSH2 0x7F JUMPI DUP1 PUSH4 0x9BD5A60 EQ PUSH2 0x9D JUMPI DUP1 PUSH4 0x22F3E2D4 EQ PUSH2 0xBB JUMPI JUMPDEST PUSH0 PUSH0 REVERT JUMPDEST PUSH2 0x87 PUSH2 0x14F JUMP JUMPDEST PUSH1 0x40 MLOAD PUSH2 0x94 SWAP2 SWAP1 PUSH2 0x25E JUMP JUMPDEST PUSH1 0x40 MLOAD DUP1 SWAP2 SUB SWAP1 RETURN JUMPDEST PUSH2 0xA5 PUSH2 0x154 JUMP JUMPDEST PUSH1 0x40 MLOAD PUSH2 0xB2 SWAP2 SWAP1 PUSH2 0x28F JUMP JUMPDEST PUSH1 0x40 MLOAD DUP1 SWAP2 SUB SWAP1 RETURN JUMPDEST PUSH2 0xC3 PUSH2 0x15A JUMP JUMPDEST PUSH1 0x40 MLOAD PUSH2 0xD0 SWAP2 SWAP1 PUSH2 0x2C2 JUMP JUMPDEST PUSH1 0x40 MLOAD DUP1 SWAP2 SUB SWAP1 RETURN JUMPDEST PUSH2 0xF3 PUSH1 0x4 DUP1 CALLDATASIZE SUB DUP2 ADD SWAP1 PUSH2 0xEE SWAP2 SWAP1 PUSH2 0x485 JUMP JUMPDEST PUSH2 0x16D JUMP JUMPDEST STOP JUMPDEST PUSH2 0xFD PUSH2 0x18F JUMP JUMPDEST PUSH1 0x40 MLOAD PUSH2 0x10A SWAP2 SWAP1 PUSH2 0x530 JUMP JUMPDEST PUSH1 0x40 MLOAD DUP1 SWAP2 SUB SWAP1 RETURN JUMPDEST PUSH2 0x11B PUSH2 0x1B4 JUMP JUMPDEST PUSH1 0x40 MLOAD PUSH2 0x128 SWAP2 SWAP1 PUSH2 0x558 JUMP JUMPDEST PUSH1 0x40 MLOAD DUP1 SWAP2 SUB SWAP1 RETURN JUMPDEST PUSH2 0x139 PUSH2 0x1BA JUMP JUMPDEST PUSH1 0x40 MLOAD PUSH2 0x146 SWAP2 SWAP1 PUSH2 0x5D1 JUMP JUMPDEST PUSH1 0x40 MLOAD DUP1 SWAP2 SUB SWAP1 RETURN JUMPDEST PUSH0 SLOAD DUP2 JUMP JUMPDEST PUSH1 0x4 SLOAD DUP2 JUMP JUMPDEST PUSH1 0x3 PUSH1 0x14 SWAP1 SLOAD SWAP1 PUSH2 0x100 EXP SWAP1 DIV PUSH1 0xFF AND DUP2 JUMP JUMPDEST DUP3 PUSH0 DUP2 SWAP1 SSTORE POP DUP2 PUSH1 0x1 DUP2 SWAP1 SSTORE POP DUP1 PUSH1 0x2 SWAP1 DUP2 PUSH2 0x189 SWAP2 SWAP1 PUSH2 0x7EE JUMP JUMPDEST POP POP POP POP JUMP JUMPDEST PUSH1 0x3 PUSH0 SWAP1 SLOAD SWAP1 PUSH2 0x100 EXP SWAP1 DIV PUSH20 0xFFFFFFFFFFFFFFFFFFFFFFFFFFFFFFFFFFFFFFFF AND DUP2 JUMP JUMPDEST PUSH1 0x1 SLOAD DUP2 JUMP JUMPDEST PUSH1 0x2 DUP1 SLOAD PUSH2 0x1C7 SWAP1 PUSH2 0x61E JUMP JUMPDEST DUP1 PUSH1 0x1F ADD PUSH1 0x20 DUP1 SWAP2 DIV MUL PUSH1 0x20 ADD PUSH1 0x40 MLOAD SWAP1 DUP2 ADD PUSH1 0x40 MSTORE DUP1 SWAP3 SWAP2 SWAP1 DUP2 DUP2 MSTORE PUSH1 0x20 ADD DUP3 DUP1 SLOAD PUSH2 0x1F3 SWAP1 PUSH2 0x61E JUMP JUMPDEST DUP1 ISZERO PUSH2 0x23E JUMPI DUP1 PUSH1 0x1F LT PUSH2 0x215 JUMPI PUSH2 0x100 DUP1 DUP4 SLOAD DIV MUL DUP4 MSTORE SWAP2 PUSH1 0x20 ADD SWAP2 PUSH2 0x23E JUMP JUMPDEST DUP3 ADD SWAP2 SWAP1 PUSH0 MSTORE PUSH1 0x20 PUSH0 KECCAK256 SWAP1 JUMPDEST DUP2 SLOAD DUP2 MSTORE SWAP1 PUSH1 0x1 ADD SWAP1 PUSH1 0x20 ADD DUP1 DUP4 GT PUSH2 0x221 JUMPI DUP3 SWAP1 SUB PUSH1 0x1F AND DUP3 ADD SWAP2 JUMPDEST POP POP POP POP POP DUP2 JUMP JUMPDEST PUSH0 DUP2 SWAP1 POP SWAP2 SWAP1 POP JUMP JUMPDEST PUSH2 0x258 DUP2 PUSH2 0x246 JUMP JUMPDEST DUP3 MSTORE POP POP JUMP JUMPDEST PUSH0 PUSH1 0x20 DUP3 ADD SWAP1 POP PUSH2 0x271 PUSH0 DUP4 ADD DUP5 PUSH2 0x24F JUMP JUMPDEST SWAP3 SWAP2 POP POP JUMP JUMPDEST PUSH0 DUP2 SWAP1 POP SWAP2 SWAP1 POP JUMP JUMPDEST PUSH2 0x289 DUP2 PUSH2 0x277 JUMP JUMPDEST DUP3 MSTORE POP POP JUMP JUMPDEST PUSH0 PUSH1 0x20 DUP3 ADD SWAP1 POP PUSH2 0x2A2 PUSH0 DUP4 ADD DUP5 PUSH2 0x280 JUMP JUMPDEST SWAP3 SWAP2 POP POP JUMP JUMPDEST PUSH0 DUP2 ISZERO ISZERO SWAP1 POP SWAP2 SWAP1 POP JUMP JUMPDEST PUSH2 0x2BC DUP2 PUSH2 0x2A8 JUMP JUMPDEST DUP3 MSTORE POP POP JUMP JUMPDEST PUSH0 PUSH1 0x20 DUP3 ADD SWAP1 POP PUSH2 0x2D5 PUSH0 DUP4 ADD DUP5 PUSH2 0x2B3 JUMP JUMPDEST SWAP3 SWAP2 POP POP JUMP JUMPDEST PUSH0 PUSH1 0x40 MLOAD SWAP1 POP SWAP1 JUMP JUMPDEST PUSH0 PUSH0 REVERT JUMPDEST PUSH0 PUSH0 REVERT JUMPDEST PUSH2 0x2F5 DUP2 PUSH2 0x246 JUMP JUMPDEST DUP2 EQ PUSH2 0x2FF JUMPI PUSH0 PUSH0 REVERT JUMPDEST POP JUMP JUMPDEST PUSH0 DUP2 CALLDATALOAD SWAP1 POP PUSH2 0x310 DUP2 PUSH2 0x2EC JUMP JUMPDEST SWAP3 SWAP2 POP POP JUMP JUMPDEST PUSH0 DUP2 SWAP1 POP SWAP2 SWAP1 POP JUMP JUMPDEST PUSH2 0x328 DUP2 PUSH2 0x316 JUMP JUMPDEST DUP2 EQ PUSH2 0x332 JUMPI PUSH0 PUSH0 REVERT JUMPDEST POP JUMP JUMPDEST PUSH0 DUP2 CALLDATALOAD SWAP1 POP PUSH2 0x343 DUP2 PUSH2 0x31F JUMP JUMPDEST SWAP3 SWAP2 POP POP JUMP JUMPDEST PUSH0 PUSH0 REVERT JUMPDEST PUSH0 PUSH0 REVERT JUMPDEST PUSH0 PUSH1 0x1F NOT PUSH1 0x1F DUP4 ADD AND SWAP1 POP SWAP2 SWAP1 POP JUMP JUMPDEST PUSH32 0x4E487B7100000000000000000000000000000000000000000000000000000000 PUSH0 MSTORE PUSH1 0x41 PUSH1 0x4 MSTORE PUSH1 0x24 PUSH0 REVERT JUMPDEST PUSH2 0x397 DUP3 PUSH2 0x351 JUMP JUMPDEST DUP2 ADD DUP2 DUP2 LT PUSH8 0xFFFFFFFFFFFFFFFF DUP3 GT OR ISZERO PUSH2 0x3B6 JUMPI PUSH2 0x3B5 PUSH2 0x361 JUMP JUMPDEST JUMPDEST DUP1 PUSH1 0x40 MSTORE POP POP POP JUMP JUMPDEST PUSH0 PUSH2 0x3C8 PUSH2 0x2DB JUMP JUMPDEST SWAP1 POP PUSH2 0x3D4 DUP3 DUP3 PUSH2 0x38E JUMP JUMPDEST SWAP2 SWAP1 POP JUMP JUMPDEST PUSH0 PUSH8 0xFFFFFFFFFFFFFFFF DUP3 GT ISZERO PUSH2 0x3F3 JUMPI PUSH2 0x3F2 PUSH2 0x361 JUMP JUMPDEST JUMPDEST PUSH2 0x3FC DUP3 PUSH2 0x351 JUMP JUMPDEST SWAP1 POP PUSH1 0x20 DUP2 ADD SWAP1 POP SWAP2 SWAP1 POP JUMP JUMPDEST DUP3 DUP2 DUP4 CALLDATACOPY PUSH0 DUP4 DUP4 ADD MSTORE POP POP POP JUMP JUMPDEST PUSH0 PUSH2 0x429 PUSH2 0x424 DUP5 PUSH2 0x3D9 JUMP JUMPDEST PUSH2 0x3BF JUMP JUMPDEST SWAP1 POP DUP3 DUP2 MSTORE PUSH1 0x20 DUP2 ADD DUP5 DUP5 DUP5 ADD GT ISZERO PUSH2 0x445 JUMPI PUSH2 0x444 PUSH2 0x34D JUMP JUMPDEST JUMPDEST PUSH2 0x450 DUP5 DUP3 DUP6 PUSH2 0x409 JUMP JUMPDEST POP SWAP4 SWAP3 POP POP POP JUMP JUMPDEST PUSH0 DUP3 PUSH1 0x1F DUP4 ADD SLT PUSH2 0x46C JUMPI PUSH2 0x46B PUSH2 0x349 JUMP JUMPDEST JUMPDEST DUP2 CALLDATALOAD PUSH2 0x47C DUP5 DUP3 PUSH1 0x20 DUP7 ADD PUSH2 0x417 JUMP JUMPDEST SWAP2 POP POP SWAP3 SWAP2 POP POP JUMP JUMPDEST PUSH0 PUSH0 PUSH0 PUSH1 0x60 DUP5 DUP7 SUB SLT ISZERO PUSH2 0x49C JUMPI PUSH2 0x49B PUSH2 0x2E4 JUMP JUMPDEST JUMPDEST PUSH0 PUSH2 0x4A9 DUP7 DUP3 DUP8 ADD PUSH2 0x302 JUMP JUMPDEST SWAP4 POP POP PUSH1 0x20 PUSH2 0x4BA DUP7 DUP3 DUP8 ADD PUSH2 0x335 JUMP JUMPDEST SWAP3 POP POP PUSH1 0x40 DUP5 ADD CALLDATALOAD PUSH8 0xFFFFFFFFFFFFFFFF DUP2 GT ISZERO PUSH2 0x4DB JUMPI PUSH2 0x4DA PUSH2 0x2E8 JUMP JUMPDEST JUMPDEST PUSH2 0x4E7 DUP7 DUP3 DUP8 ADD PUSH2 0x458 JUMP JUMPDEST SWAP2 POP POP SWAP3 POP SWAP3 POP SWAP3 JUMP JUMPDEST PUSH0 PUSH20 0xFFFFFFFFFFFFFFFFFFFFFFFFFFFFFFFFFFFFFFFF DUP3 AND SWAP1 POP SWAP2 SWAP1 POP JUMP JUMPDEST PUSH0 PUSH2 0x51A DUP3 PUSH2 0x4F1 JUMP JUMPDEST SWAP1 POP SWAP2 SWAP1 POP JUMP JUMPDEST PUSH2 0x52A DUP2 PUSH2 0x510 JUMP JUMPDEST DUP3 MSTORE POP POP JUMP JUMPDEST PUSH0 PUSH1 0x20 DUP3 ADD SWAP1 POP PUSH2 0x543 PUSH0 DUP4 ADD DUP5 PUSH2 0x521 JUMP JUMPDEST SWAP3 SWAP2 POP POP JUMP JUMPDEST PUSH2 0x552 DUP2 PUSH2 0x316 JUMP JUMPDEST DUP3 MSTORE POP POP JUMP JUMPDEST PUSH0 PUSH1 0x20 DUP3 ADD SWAP1 POP PUSH2 0x56B PUSH0 DUP4 ADD DUP5 PUSH2 0x549 JUMP JUMPDEST SWAP3 SWAP2 POP POP JUMP JUMPDEST PUSH0 DUP2 MLOAD SWAP1 POP SWAP2 SWAP1 POP JUMP JUMPDEST PUSH0 DUP3 DUP3 MSTORE PUSH1 0x20 DUP3 ADD SWAP1 POP SWAP3 SWAP2 POP POP JUMP JUMPDEST DUP3 DUP2 DUP4 MCOPY PUSH0 DUP4 DUP4 ADD MSTORE POP POP POP JUMP JUMPDEST PUSH0 PUSH2 0x5A3 DUP3 PUSH2 0x571 JUMP JUMPDEST PUSH2 0x5AD DUP2 DUP6 PUSH2 0x57B JUMP JUMPDEST SWAP4 POP PUSH2 0x5BD DUP2 DUP6 PUSH1 0x20 DUP7 ADD PUSH2 0x58B JUMP JUMPDEST PUSH2 0x5C6 DUP2 PUSH2 0x351 JUMP JUMPDEST DUP5 ADD SWAP2 POP POP SWAP3 SWAP2 POP POP JUMP JUMPDEST PUSH0 PUSH1 0x20 DUP3 ADD SWAP1 POP DUP2 DUP2 SUB PUSH0 DUP4 ADD MSTORE PUSH2 0x5E9 DUP2 DUP5 PUSH2 0x599 JUMP JUMPDEST SWAP1 POP SWAP3 SWAP2 POP POP JUMP JUMPDEST PUSH32 0x4E487B7100000000000000000000000000000000000000000000000000000000 PUSH0 MSTORE PUSH1 0x22 PUSH1 0x4 MSTORE PUSH1 0x24 PUSH0 REVERT JUMPDEST PUSH0 PUSH1 0x2 DUP3 DIV SWAP1 POP PUSH1 0x1 DUP3 AND DUP1 PUSH2 0x635 JUMPI PUSH1 0x7F DUP3 AND SWAP2 POP JUMPDEST PUSH1 0x20 DUP3 LT DUP2 SUB PUSH2 0x648 JUMPI PUSH2 0x647 PUSH2 0x5F1 JUMP JUMPDEST JUMPDEST POP SWAP2 SWAP1 POP JUMP JUMPDEST PUSH0 DUP2 SWAP1 POP DUP2 PUSH0 MSTORE PUSH1 0x20 PUSH0 KECCAK256 SWAP1 POP SWAP2 SWAP1 POP JUMP JUMPDEST PUSH0 PUSH1 0x20 PUSH1 0x1F DUP4 ADD DIV SWAP1 POP SWAP2 SWAP1 POP JUMP JUMPDEST PUSH0 DUP3 DUP3 SHL SWAP1 POP SWAP3 SWAP2 POP POP JUMP JUMPDEST PUSH0 PUSH1 0x8 DUP4 MUL PUSH2 0x6AA PUSH32 0xFFFFFFFFFFFFFFFFFFFFFFFFFFFFFFFFFFFFFFFFFFFFFFFFFFFFFFFFFFFFFFFF DUP3 PUSH2 0x66F JUMP JUMPDEST PUSH2 0x6B4 DUP7 DUP4 PUSH2 0x66F JUMP JUMPDEST SWAP6 POP DUP1 NOT DUP5 AND SWAP4 POP DUP1 DUP7 AND DUP5 OR SWAP3 POP POP POP SWAP4 SWAP3 POP POP POP JUMP JUMPDEST PUSH0 DUP2 SWAP1 POP SWAP2 SWAP1 POP JUMP JUMPDEST PUSH0 PUSH2 0x6EF PUSH2 0x6EA PUSH2 0x6E5 DUP5 PUSH2 0x246 JUMP JUMPDEST PUSH2 0x6CC JUMP JUMPDEST PUSH2 0x246 JUMP JUMPDEST SWAP1 POP SWAP2 SWAP1 POP JUMP JUMPDEST PUSH0 DUP2 SWAP1 POP SWAP2 SWAP1 POP JUMP JUMPDEST PUSH2 0x708 DUP4 PUSH2 0x6D5 JUMP JUMPDEST PUSH2 0x71C PUSH2 0x714 DUP3 PUSH2 0x6F6 JUMP JUMPDEST DUP5 DUP5 SLOAD PUSH2 0x67B JUMP JUMPDEST DUP3 SSTORE POP POP POP POP JUMP JUMPDEST PUSH0 PUSH0 SWAP1 POP SWAP1 JUMP JUMPDEST PUSH2 0x733 PUSH2 0x724 JUMP JUMPDEST PUSH2 0x73E DUP2 DUP5 DUP5 PUSH2 0x6FF JUMP JUMPDEST POP POP POP JUMP JUMPDEST JUMPDEST DUP2 DUP2 LT ISZERO PUSH2 0x761 JUMPI PUSH2 0x756 PUSH0 DUP3 PUSH2 0x72B JUMP JUMPDEST PUSH1 0x1 DUP2 ADD SWAP1 POP PUSH2 0x744 JUMP JUMPDEST POP POP JUMP JUMPDEST PUSH1 0x1F DUP3 GT ISZERO PUSH2 0x7A6 JUMPI PUSH2 0x777 DUP2 PUSH2 0x64E JUMP JUMPDEST PUSH2 0x780 DUP5 PUSH2 0x660 JUMP JUMPDEST DUP2 ADD PUSH1 0x20 DUP6 LT ISZERO PUSH2 0x78F JUMPI DUP2 SWAP1 POP JUMPDEST PUSH2 0x7A3 PUSH2 0x79B DUP6 PUSH2 0x660 JUMP JUMPDEST DUP4 ADD DUP3 PUSH2 0x743 JUMP JUMPDEST POP POP JUMPDEST POP POP POP JUMP JUMPDEST PUSH0 DUP3 DUP3 SHR SWAP1 POP SWAP3 SWAP2 POP POP JUMP JUMPDEST PUSH0 PUSH2 0x7C6 PUSH0 NOT DUP5 PUSH1 0x8 MUL PUSH2 0x7AB JUMP JUMPDEST NOT DUP1 DUP4 AND SWAP2 POP POP SWAP3 SWAP2 POP POP JUMP JUMPDEST PUSH0 PUSH2 0x7DE DUP4 DUP4 PUSH2 0x7B7 JUMP JUMPDEST SWAP2 POP DUP3 PUSH1 0x2 MUL DUP3 OR SWAP1 POP SWAP3 SWAP2 POP POP JUMP JUMPDEST PUSH2 0x7F7 DUP3 PUSH2 0x571 JUMP JUMPDEST PUSH8 0xFFFFFFFFFFFFFFFF DUP2 GT ISZERO PUSH2 0x810 JUMPI PUSH2 0x80F PUSH2 0x361 JUMP JUMPDEST JUMPDEST PUSH2 0x81A DUP3 SLOAD PUSH2 0x61E JUMP JUMPDEST PUSH2 0x825 DUP3 DUP3 DUP6 PUSH2 0x765 JUMP JUMPDEST PUSH0 PUSH1 0x20 SWAP1 POP PUSH1 0x1F DUP4 GT PUSH1 0x1 DUP2 EQ PUSH2 0x856 JUMPI PUSH0 DUP5 ISZERO PUSH2 0x844 JUMPI DUP3 DUP8 ADD MLOAD SWAP1 POP JUMPDEST PUSH2 0x84E DUP6 DUP3 PUSH2 0x7D3 JUMP JUMPDEST DUP7 SSTORE POP PUSH2 0x8B5 JUMP JUMPDEST PUSH1 0x1F NOT DUP5 AND PUSH2 0x864 DUP7 PUSH2 0x64E JUMP JUMPDEST PUSH0 JUMPDEST DUP3 DUP2 LT ISZERO PUSH2 0x88B JUMPI DUP5 DUP10 ADD MLOAD DUP3 SSTORE PUSH1 0x1 DUP3 ADD SWAP2 POP PUSH1 0x20 DUP6 ADD SWAP5 POP PUSH1 0x20 DUP2 ADD SWAP1 POP PUSH2 0x866 JUMP JUMPDEST DUP7 DUP4 LT ISZERO PUSH2 0x8A8 JUMPI DUP5 DUP10 ADD MLOAD PUSH2 0x8A4 PUSH1 0x1F DUP10 AND DUP3 PUSH2 0x7B7 JUMP JUMPDEST DUP4 SSTORE POP JUMPDEST PUSH1 0x1 PUSH1 0x2 DUP9 MUL ADD DUP9 SSTORE POP POP POP JUMPDEST POP POP POP POP POP POP JUMP INVALID LOG2 PUSH5 0x6970667358 0x22 SLT KECCAK256 RETF ADDRESS MSTORE 0xCB DUP6 NUMBER PUSH4 0x39E82D97 0xDC SMOD SWAP12 PUSH18 0x7ABC7791C9AF231192299E60B5251258F264 PUSH20 0x6F6C634300081E00330000000000000000000000 "
		},
		"gasEstimates": {
			"creation": {
				"codeDepositCost": "458200",
				"executionCost": "infinite",
				"totalCost": "infinite"
			},
			"external": {
				"count()": "2425",
				"greeting()": "infinite",
				"hash()": "2448",
				"isActive()": "2562",
				"owner()": "2530",
				"temperature()": "2469",
				"updateValues(uint256,int256,string)": "infinite"
			}
		},
		"methodIdentifiers": {
			"count()": "06661abd",
			"greeting()": "ef690cc0",
			"hash()": "09bd5a60",
			"isActive()": "22f3e2d4",
			"owner()": "8da5cb5b",
			"temperature()": "adccea12",
			"updateValues(uint256,int256,string)": "5b3d4bde"
		}
	},
	"abi": [
		{
			"inputs": [],
			"name": "count",
			"outputs": [
				{
					"internalType": "uint256",
					"name": "",
					"type": "uint256"
				}
			],
			"stateMutability": "view",
			"type": "function"
		},
		{
			"inputs": [],
			"name": "greeting",
			"outputs": [
				{
					"internalType": "string",
					"name": "",
					"type": "string"
				}
			],
			"stateMutability": "view",
			"type": "function"
		},
		{
			"inputs": [],
			"name": "hash",
			"outputs": [
				{
					"internalType": "bytes32",
					"name": "",
					"type": "bytes32"
				}
			],
			"stateMutability": "view",
			"type": "function"
		},
		{
			"inputs": [],
			"name": "isActive",
			"outputs": [
				{
					"internalType": "bool",
					"name": "",
					"type": "bool"
				}
			],
			"stateMutability": "view",
			"type": "function"
		},
		{
			"inputs": [],
			"name": "owner",
			"outputs": [
				{
					"internalType": "address",
					"name": "",
					"type": "address"
				}
			],
			"stateMutability": "view",
			"type": "function"
		},
		{
			"inputs": [],
			"name": "temperature",
			"outputs": [
				{
					"internalType": "int256",
					"name": "",
					"type": "int256"
				}
			],
			"stateMutability": "view",
			"type": "function"
		},
		{
			"inputs": [
				{
					"internalType": "uint256",
					"name": "_count",
					"type": "uint256"
				},
				{
					"internalType": "int256",
					"name": "_temp",
					"type": "int256"
				},
				{
					"internalType": "string",
					"name": "_greeting",
					"type": "string"
				}
			],
			"name": "updateValues",
			"outputs": [],
			"stateMutability": "nonpayable",
			"type": "function"
		}
	]
}